:100000000C9466000C9483000C9483000C94830081
:100010000C9483000C9483000C9483000C94830054
:100020000C9483000C9489100C9483000C94C210DF
:100030000C9483000C9483000C9483000C94830034
:100040000C9411140C9483000C94B00A0C94370B8C
:100050000C9483000C9483000C9483000C94830014
:100060000C9483000C948300BA0CE00CBA0CE00CE6
:10007000530D4F0DEE0CF30DF30DF00DEC0DE80DDF
:10008000E40DE00DDC0DD80DD40DB30D910D560D22
:10009000390FB70C2E0FB70C230F180F0D0FF80EDA
:1000A000E30ECE0EB70CB70CC30EB70CA20EB70CF6
:1000B000B70CB70CB70CB70CA90E880E6E0E9211C8
:1000C0008A1182117A1172116A119A1211241FBEBB
:1000D000CFEFD8E0DEBFCDBF11E0A0E0B1E0EAE6AF
:1000E000F4E302C005900D92A230B107D9F726E0E3
:1000F000A2E0B1E001C01D92AF3BB207E1F70E9460
:10010000710B0C94331A0C940000EEEBF2E0638157
:10011000862F90E0A0E0B0E080589109A109B109D4
:10012000880F991FAA1FBB1F880F991FAA1FBB1FEB
:10013000880F991FAA1FBB1F880F991FAA1FBB1FDB
:10014000880F991FAA1FBB1F880F991FAA1FBB1FCB
:10015000AC01BD01440F551F661F771F828190E0DF
:10016000A0E0B0E080589109A109B109840F951F62
:10017000A61FB71F880F991FAA1FBB1F880F991FA3
:10018000AA1FBB1F880F991FAA1FBB1F880F991F8B
:10019000AA1FBB1F880F991FAA1FBB1F880F991F7B
:1001A000AA1FBB1FAC01BD01440F551F661F771F5F
:1001B000818190E0A0E0B0E080589109A109B109E7
:1001C000840F951FA61FB71F880F991FAA1FBB1F5B
:1001D000880F991FAA1FBB1F880F991FAA1FBB1F3B
:1001E000880F991FAA1FBB1F880F991FAA1FBB1F2B
:1001F000880F991FAA1FBB1F880F991FAA1FBB1F1B
:100200002081820F911DA11DB11DBC01CD0160583F
:100210007109810998400E94E71720E030E04AE721
:1002200054E40E943D170895209102012F5F203869
:1002300091F0909183012917E1F3E0910201F0E040
:10024000ED5FFE4F8083209302018091C1008062A8
:100250008093C100089520E0ECCFCF93C82FCB014D
:10026000BA0120E030E04AE754E40E9427190E94D6
:10027000F418AB01BC01785F842F806820910201E3
:100280002F5F203809F495C0909183019217E1F314
:10029000E0910201F0E0ED5FFE4F808320930201C8
:1002A0008091C10080628093C100DB01CA01807827
:1002B0009F73AA27BB2737E0B695A7959795879593
:1002C0003A95D1F78058209102012F5F203809F428
:1002D00078C0909183019217E1F3E0910201F0E080
:1002E000ED5FFE4F8083209302018091C100806208
:1002F0008093C100DB01CA018827907CAF71BB27C6
:100300002EE0B695A795979587952A95D1F78058B1
:10031000209102012F5F203809F451C09091830190
:100320009217E1F3E0910201F0E0ED5FFE4F808370
:10033000209302018091C10080628093C100442714
:100340005527607E7F7085E176956795579547952F
:100350008A95D1F74058209102012F5F203869F12A
:10036000909183019217E1F3E0910201F0E0ED5FDB
:10037000FE4F4083209302018091C10080628093F0
:10038000C100209102012F5F2038A9F090918301D4
:100390009217E1F3E0910201F0E0ED5FFE4FC083C0
:1003A000209302018091C10080628093C100CF91AF
:1003B000089520E069CF20E0E9CF20E0D1CF20E010
:1003C000ADCF20E086CF8F929F92AF92BF92CF9217
:1003D000DF92EF92FF920F931F93CF938091990535
:1003E000811117C18091BD02811105C08091BC02AD
:1003F000882309F4FDC01092BD029091930580916D
:100400009205981709F45FC14A9B59C14B9B53C190
:10041000C0919805C03209F4E5C08C2F0E941401E8
:10042000309BF2C0319906C0C53209F4D1C185E2D2
:100430000E941401329906C0C63209F4C6C186E290
:100440000E941401339905C0CA3219F08AE20E9451
:100450001401C091960260919F057091A005809152
:10046000A1059091A2050E94E7172CE137EC41EB22
:1004700052E40E943D172C2F30E0F901EE0FFF1FD0
:10048000E20FF31FEE0FFF1FEE0FFF1FE457FD4FAC
:100490002789308D418D528D0E94B416AB01BC016D
:1004A00088E70E942D01C09196026091A30570918A
:1004B000A4058091A5059091A6050E94E71724E761
:1004C00031ED45EB52E40E943D172C2F30E0F9014D
:1004D000EE0FFF1FE20FF31FEE0FFF1FEE0FFF1FC8
:1004E000E057FD4F2789308D418D528D0E94B41603
:1004F000AB01BC0189E70E942D01C0919602609179
:10050000A7057091A8058091A9059091AA050E9460
:10051000E71725E535E545E052E40E943D172C2F0D
:1005200030E0F901EE0FFF1FE20FF31FEE0FFF1F88
:10053000EE0FFF1FEC56FD4F2789308D418D528DF8
:100540000E94B416AB01BC018AE70E942D01809184
:100550008B02882309F49EC08091BF06853C09F078
:100560003AC18FEB96E028E08F3F920711F008F038
:1005700032C160E070E0FC0105C088E0EF3FF807A1
:1005800009F030F431966F5F7F4F8081853CA9F38D
:1005900080E090E00E94E517AB01BC0185E70E9476
:1005A0002D01F89460919A0570919B05789480E0F4
:1005B00090E00E94E517AB01BC0184E70E942D0189
:1005C0008091BC02811190C089E0CF911F910F9161
:1005D000FF90EF90DF90CF90BF90AF909F908F9063
:1005E0000C94140130991ECF84E20E9414011ACF9A
:1005F000CF911F910F91FF90EF90DF90CF90BF9020
:10060000AF909F908F900895C43271F7319B0FCFB8
:1006100011CF10929305109292056091A7057091E9
:10062000A8058091A9059091AA050E94E71725E5E4
:1006300035E545E052E40E943D176B017C01609175
:10064000A3057091A4058091A5059091A6050E942F
:10065000E71724E731ED45EB52E40E943D174B01CB
:100660005C0160919F057091A0058091A10590911A
:10067000A2050E94E7172CE137EC41EB52E40E94FF
:100680003D1787017601A50194010E945E16109224
:10069000C202A8CE6091890270918A0280E090E047
:1006A0000E94E517AB01BC0187E70E942D0181E0A4
:1006B00080938B0251CF83E40E941401A9CE82E47F
:1006C0000E941401A3CE9091880280918702981312
:1006D0009BCE81E40E94140183B7816083BF88951B
:1006E00083B78E7F83BF90CE1092BC0240E050E073
:1006F00068EC74E486E70E942D012091A3023091FA
:10070000A4024091A5025091A6026091AF0270919F
:10071000B0028091B1029091B2020E94B416AB0176
:10072000BC0181E60E942D012091A7023091A80210
:100730004091A9025091AA026091B3027091B40253
:100740008091B5029091B6020E94B416AB01BC0133
:1007500082E60E942D012091AB023091AC024091C3
:10076000AD025091AE026091B7027091B8028091D3
:10077000B9029091BA020E94B416AB01BC0183E6A3
:100780000E942D0140918D0250918E0260918F0246
:100790007091900287E60E942D0140919102509144
:1007A0009202609193027091940288E60E942D015A
:1007B0006091950270E080E090E00E94E517AB0147
:1007C000BC0189E60E942D01FFCE339B3FCE41CE76
:1007D000329B35CE37CE40E050E0BA01DFCE0F93EA
:1007E0001F93CF93DF93082F909193059F5F9A30CB
:1007F00039F1C92F092E000CDD0B192F209192051C
:1008000030E0C217D30741F40E94E3012091920522
:1008100030E02C173D07C1F3E091930585E4E89F94
:10082000F0011124E052FD4F0083FF9611821082E7
:1008300010939305DF91CF911F910F910C940114A8
:1008400010E0C0E0D0E0DACFCF9310928602909112
:10085000880280918702981324C080E0C1E00AC01A
:100860000E94E3019091880280918702981319C039
:10087000809186028111F4CF8091890290918A0241
:10088000019690938A028093890210928B02C09302
:1008900086020E94E3019091880280918702981756
:1008A00039F3F894E0918802F0E0E957FE4F808137
:1008B000909188029F5F909388029F3FD9F090911A
:1008C00001019F5F90930101909186019F5F90933A
:1008D0008601903161F4909185019F5F909385012D
:1008E0009091C10090629093C1001092860178941B
:1008F000CF91089510928802E2CF2F923F924F92AB
:100900005F926F927F928F929F92AF92BF92CF929F
:10091000DF92EF92FF920F931F93CF93DF93CDB7A8
:10092000DEB7E4970FB6F894DEBF0FBECDBF2983C4
:100930003A834B835C8327013801AB8ABC8ACD8A1A
:10094000DE8A2D960CAD1DAD2EAD3FAD2D970BA3C0
:100950001CA32DA33EA32E961FAD2E971EA72F9648
:100960000FAD2F970D832CE137EC41EB52E40E9441
:1009700027190E94F4186F83788789879A8724E75C
:1009800031ED45EB52E469817A818B819C810E9433
:1009900027190E94F4186B8F7C8F8D8F9E8F25E511
:1009A00035E545E052E4C301B2010E9427190E94D7
:1009B000F4186F8F78A389A39AA3809193058F5F12
:1009C00089838A3009F42BC5082E000C990B0091FD
:1009D000920510E00817190741F40E94E301809185
:1009E000920590E080179107C1F300919305202EA6
:1009F000312C25E4029F8001112400521D4FD801A3
:100A00001C92BD81B111BAC4F801FF961182108207
:100A100085E4829DF001839DF00D1124E052FD4F8D
:100A200015868091D3029091D402A091D502B09105
:100A3000D6020F81188529853A85081719072A07D4
:100A40003B0714F428E025870091D7021091D802C3
:100A50002091D9023091DA024B8D5C8D6D8D7E8DA7
:100A600040175107620773075CF445E4429DF001AB
:100A7000439DF00D1124E052FD4F458540614587AF
:100A8000C090DB02D090DC02E090DD02F090DE024C
:100A90004F8D58A169A17AA14C155D056E057F05A2
:100AA0000CF462C34F81588569857A85481B590BC0
:100AB0006A0B7B0B2A013B0177FD1AC5E5E4E29D39
:100AC000C001E39D900D1124FC01E052FD4F4182D5
:100AD0005282638274828B8C9C8CAD8CBE8C801A0B
:100AE000910AA20AB30A8F86988AA98ABA8AB7FCA1
:100AF00007C5E5E4E29D9001E39D300D1124F90165
:100B0000E052FD4F0F85188929893A89058316839C
:100B1000278330878F8D98A1A9A1BAA18C199D092F
:100B2000AE09BF096C017D018C019D01B7FDF4C4C4
:100B300095E4929DD001939DB00D1124FD01E052EA
:100B4000FD4F01871287238734878F859889A9896C
:100B5000BA8984159505A605B70508F4FAC22C01D3
:100B60003D0180179107A207B30708F4EFC285E49F
:100B7000829D8001839D100D112400521D4FD801CC
:100B80001E964D925D926D927C9251974114510444
:100B90006104710409F4F4C2CB01BA010E94E717A1
:100BA0002CE137EC41EB52E40E943D176F87788BC4
:100BB000898B9A8BC501B4010E94E71724E731EDB8
:100BC00045EB52E40E943D176F8B788F898F9A8F87
:100BD000C701B6010E94E71725E535E545E052E477
:100BE0000E943D176AA77BA78CA79DA72F853889F0
:100BF00049895A89CA01B9010E9427194B015C0130
:100C00002F89388D498D5A8DCA01B9010E94271943
:100C10006B877C878D879E872AA53BA54CA55DA504
:100C2000CA01B9010E9427196B017C012B853C8503
:100C30004D855E85C501B4010E94B516A7019601D8
:100C40000E94B5160E949A196B877C878D879E87B4
:100C5000F80162A373A384A395A39B01AC0160E098
:100C600070E080E89FE30E943D176B017C019B01CF
:100C7000AC016B897C898D899E890E9427194B0163
:100C80005C019B01AC016B857C858D859E850E94F6
:100C900027196B8B7FA388A799A7CB01A8A5B9A516
:100CA000F801868B978BA08FB18FC301B2010E9490
:100CB000E7176FA778AB89AB9AABA50194010E94A7
:100CC00027190E9421170E94B6172B013C01D80159
:100CD00052966D937D938D939C9355970D81002330
:100CE000A9F0602F70E080E090E00E94E717A50176
:100CF00094010E94271920E030E040E752E40E946E
:100D00003D176BA37CA38DA39EA31EA685E4829DA5
:100D10008001839D100D112400521D4FEEA5D801B6
:100D20009896EC9320E030E040E857E46BA17CA17A
:100D30008DA19EA10E94271925E831EB45E058E3DB
:100D40000E9427190E94B617D80197967C936E933C
:100D50009697F801EF5BFF4FFE83ED8380E090E014
:100D60000E94E5174B015C01C301B2010E94E51727
:100D70009B01AC01C501B4010E943D1720E030E0A9
:100D800040E05AE40E9427190E94B617AD81BE8147
:100D90006D937D938D939C9313972FA538A949A9A3
:100DA0005AA9C701B6010E94271920E03AEB4BED82
:100DB00059E40E94271920E030E84BE356E40E94F2
:100DC0003D170E9421170E94AF17F80163AB74AB67
:100DD00085AB96ABA70196016F85788989899A8939
:100DE0000E9427192B013C01A70196016F89788D7C
:100DF000898D9A8D0E9427196BA37CA38DA39EA336
:100E0000A70196016AA57BA58CA59DA50E9427191F
:100E10004B015C019091930580919205981709F41C
:100E200058C00091CF020D831091D0021F8700910E
:100E3000D1021091D20220E030E0A9016D817F85BE
:100E4000C8010E94EF1818160CF043C08091C3022D
:100E50009091C402A091C502B091C6029C01AD015F
:100E60005058C301B2010E9427196B017C012091E7
:100E7000C7023091C8024091C9025091CA026BA1C9
:100E80007CA18DA19EA10E9427199B01AC01C701E5
:100E9000B6010E94B4166B017C012091CB02309107
:100EA000CC024091CD025091CE02C501B4010E9406
:100EB00027199B01AC01C701B6010E94B4166B0152
:100EC0007C0123E333E343E75FE30E94381787FDA8
:100ED000B3C21D821F8600E010E085E4829DF00110
:100EE000839DF00D1124E052FD4F8D819F85D80127
:100EF000868F978FA0A3B1A320E03AEB4BE55AEC85
:100F00006B857C858D859E850E9427199B01AC0190
:100F100060E070E0CB010E94B4160E949A197B0138
:100F20008B879F8B9B01AC016D817F85C8010E94DF
:100F3000381787FD78C2FE2DEF2D9B858F8945E4FC
:100F4000429D9001439D300D1124A90140525D4FF7
:100F50006A014F2F5E2F692F782FD6015A964D9335
:100F60005D936D937C935D9797014B855F896B894A
:100F70007FA188A599A50E94381718160CF458C2AD
:100F800081E0F60182A785E4829DF001839DF00D4A
:100F90001124E052FD4F81E081A74092C30250929C
:100FA000C4026092C5027092C6020BA11CA12DA1C1
:100FB0003EA10093C7021093C8022093C902309348
:100FC000CA028092CB029092CC02A092CD02B09243
:100FD000CE028B899FA1A8A5B9A58093CF0290933B
:100FE000D002A093D102B093D2021981109393053D
:100FF0002F81388549855A852093D3023093D402B6
:101000004093D5025093D6024B8D5C8D6D8D7E8DB5
:101010004093D7025093D8026093D9027093DA02BA
:101020006F8D78A189A19AA16093DB027093DC0295
:101030008093DD029093DE02F0909305E0E0F0E013
:1010400000E010E025E4822E332433946DC0FA943E
:101050002F2D0F2C000C330B829EC001839E900D10
:101060001124DC01A052BD4F6D010115110509F4D9
:1010700059C0309709F456C0D8019A968C919A9726
:10108000811197C05E96EC905E975F96BC905F97DB
:101090009096AC90909791969C90428C538C648CD7
:1010A000758CA30192016E2D7B2D8A2D992D0E94A6
:1010B000EF1818166CF520E03AEB4BE55AECF80106
:1010C00062A173A184A195A10E94271969837A83E3
:1010D0008B839C83A3019201C301B2010E94271953
:1010E00029813A814B815C810E94B4160E949A1931
:1010F0002B013C019B01AC016E2D7B2D8A2D992D7E
:101100000E94381787FD04C0E42CB52CA62C972C20
:101110008E2D9B2DAA2DB92DF801828F938FA48F30
:10112000B58F31A6F80186018091920590E02F2DB0
:101130000F2C000C330B2817390709F447C0F110A6
:1011400086CF29E030E099E0F92E86CF28013901D9
:101150000ECDD301C2012C013D0180179107A207DA
:10116000B30708F004CDF2CF45E4429DF001439D62
:10117000F00D1124E052FD4F45854062458792CC29
:10118000E4960FB6F894DEBF0FBECDBFDF91CF91CE
:101190001F910F91FF90EF90DF90CF90BF90AF9095
:1011A0009F908F907F906F905F904F903F902F9087
:1011B0000895D8015E96EC905E975F96BC905F971D
:1011C0009096AC90909791969C90A2CF109192059A
:1011D000E12CF12CE0E0F0E005E402C0F701790138
:1011E000412F012E000C550B2091930530E0421742
:1011F000530711F1049F9001059F300D11242052D7
:101200003D4F309731F0E114F10419F082A58823A5
:1012100029F01F5F1A3011F710E0E0CFA701475DFA
:101220005F4FB701665E7F4FCF012BAB3CAB0E9497
:1012300088143CA92BA9EDCF309739F0E114F104C3
:1012400021F082A5882309F46FC1B0909205E12CAA
:10125000F12C85E4A82E4B2D0B2C000C550B809106
:10126000930590E04817590709F44BC0A49EC001AC
:10127000A59E900D1124FC01E052FD4F6F01E11479
:10128000F104B1F1D70199968C91811103C081A528
:10129000882371F1F70146885788608C718CA49E71
:1012A000F001A59EF00D1124E052FD4FA301920123
:1012B000628D738D848D958D0E943D1769837A832D
:1012C0008B839C83A3019201D7015A966D917D91E6
:1012D0008D919C915D970E943D17AB01BC010981E6
:1012E0001A812B813C81C7010E94F114F70111A6DC
:1012F000B394FAE0BF1611F07601ADCFB12C7601B0
:10130000AACFD70156968D909D90AD90BC905997DD
:10131000A501940160E070E0CB010E943D172B0114
:101320003C01A5019401F701628D738D848D958D2B
:101330000E943D17AB01BC0193018201C7010E94CD
:10134000F114D70199961C92E4960FB6F894DEBF7B
:101350000FBECDBFDF91CF911F910F91FF90EF9006
:10136000DF90CF90BF90AF909F908F907F906F90C5
:101370005F904F903F902F900C9401140E94321672
:10138000F801FF9691838083009751F48F010E94AA
:10139000E3010E943216F801918380830097B9F32C
:1013A0000D810D3308F0CAC00D81FC01008385E476
:1013B000829DF001839DF00D1124E15EFC4F0081C0
:1013C00011810F5F1F4F78012D81E20EF11C08C0C3
:1013D0008058D8018D938D01AE15BF0509F418CB47
:1013E0000E94240487FDF4CF8AE3E4960FB6F894B4
:1013F000DEBF0FBECDBFDF91CF911F910F91FF9048
:10140000EF90DF90CF90BF90AF909F908F907F90A4
:101410006F905F904F903F902F900C949A1080E0C7
:1014200090E01982D4CAFD81EF85902F812F87CD5E
:10143000D6019A961C92A7CD2D813F85A8016B8974
:101440007FA188A599A50E94EF18181634F00B8982
:101450000D831FA11F8708A519A523E333E343E7E5
:101460005FEBC701B6010E94EF1818160CF035CDDE
:10147000A701960160E070E080E89FE30E94B41647
:1014800020E030E040E05FE30E9427190E949A19B3
:101490006B017C0120E030EC48E256E40E94271901
:1014A0006F8B788F898F9A8FA701960160E070E02B
:1014B00080E89FE30E94B4169B01AC016F89788D90
:1014C000898D9A8D0E943D170E949A196B01F82E02
:1014D000E92E9B01482F592F6D817F85C8010E94FD
:1014E000381787FDFACCCD82DF860F2D1E2DF5CC67
:1014F000442455243201441A550A660A770ADECA82
:1015000088279927DC0188199909AA09BB098F87BF
:10151000988BA98BBA8BEDCA002711279801081B5D
:10152000190B2A0B3B0B04CBA701475D5F4FB7019B
:10153000665E7F4FCF010E94881487CE88E255CF28
:101540009091930580919205981739F080919205BA
:101550008F5F8A3019F080939205089580E0FBCF69
:101560001F920F920FB60F9211242F933F934F9318
:101570005F936F937F938F939F93AF93BF93CF931B
:10158000EF93FF938091C000C091C60083FD3DC0E2
:10159000CC23A9F18091000181111BC081E08093CF
:1015A000000180918401C81719F08DE30E949A1000
:1015B000C03278F5C13009F448C0C23009F44DC0DA
:1015C000C33009F450C0C430E1F183E20E949A10A4
:1015D00004C010920001C0938401FF91EF91CF915C
:1015E000BF91AF919F918F917F916F915F914F913B
:1015F0003F912F910F900FBE0F901F901895109252
:10160000860181E080930001E8CF8CE20E949A106D
:10161000BFCFE091870281E08E0F8F3F81F09091E4
:1016200088028917B1F0F0E0E957FE4FC08380933C
:10163000870280910101815080930101CECF80E02B
:10164000EECF81E08093BC02C8CF81E20E949A1065
:10165000C4CF82E20E949A10C0CF80E280939805A6
:1016600010929905BACF81E08093BD02B6CF1F9248
:101670000F920FB60F9211248F939F93EF93FF93C6
:1016800080918301909185019923D1F095E0909309
:10169000C60090918501915090938501909102012F
:1016A000891305C08091C1008F7D8093C100FF9197
:1016B000EF919F918F910F900FBE0F901F901895F3
:1016C000E82FF0E0ED5FFE4F90819093C6008F5FB2
:1016D000803819F080938301E1CF80E0809383010B
:1016E000DDCFCF93DF931F92CDB7DEB77894109202
:1016F000C50080E18093C4008091C0008D7F8093FD
:10170000C0008091C10080618093C1008091C100C0
:1017100088608093C1008091C10080688093C1007F
:1017200049E759EE66EF72E48AE60E942D01DD2456
:10173000D394D0928C0280E090E8ABEBB5E4809338
:101740008D0290938E02A0938F02B093900257E97E
:10175000652E52E0752E6CE0C62ED301EC2D1D9245
:10176000EA95E9F710929102109292021092930278
:1017700010929402109295021092BB02109296025F
:1017800080E090E0A0EAB0E48093A3029093A402EA
:10179000A093A502B093A6028093A7029093A802FB
:1017A000A093A902B093AA021092AB021092AC02CD
:1017B0001092AD021092AE028093AF029093B002ED
:1017C000A093B102B093B2028093B3029093B4029B
:1017D000A093B502B093B6021092B7021092B8026D
:1017E0001092B9021092BA02D092BD02D092BC02FD
:1017F00010928A0210928902D0928B021092930565
:1018000010929205E3EDF2E0DF012C2D1D922A9556
:10181000E9F7E12CF12C870120E030E040EA50E4C8
:10182000CA01B9010E945E16E3ECF2E0DF012C2D43
:101830001D922A95E9F7E092CF02F092D002009330
:10184000D1021093D20284B18F6384B985B1807CB8
:10185000806385B9809181008F7E80938100809123
:101860008100886080938100809180008D7F8093CB
:101870008000809180008E7F809380008091800026
:101880008F7380938000809180008F7C8093800094
:101890001092B0001092B10080917000816080932E
:1018A000700060E476E080E090E00E94F10FEFE9E4
:1018B000F5E0DF011D92CA94E9F78CEB91E0A0E01E
:1018C000B0E080939F059093A005A093A105B093ED
:1018D000A20587EC91E0A0E0B0E08093A30590938F
:1018E000A405A093A505B093A605109294051092A7
:1018F0009505109296051092970510929E051092EC
:101900009D051092990580E28093980510929C05A0
:101910000E94A4108AB1837F8AB987B1807C87B97D
:10192000569A17BC81E884BDD5BC80916E00816059
:1019300080936E00549A579A5C985F98559A5D9878
:101940007CE0972E1BC09FEB980F9A3188F19FE99E
:10195000980F9A3148F59091C2029430A9F590E021
:10196000FC01E456F109E731F10508F4B3C18EE357
:101970000E949A101092C2020E94E3010E94240465
:10198000909199059111F8CF87FFDDCFE091C202C8
:10199000E43008F09BC191E09E0F9093C202F0E00A
:1019A000E254FD4F8083E8CF83E20E949A10E2CF99
:1019B000482F50E0FA01E154F109E431F10540F01B
:1019C0008CE30E949A10D6CF8AE30E949A10D2CF5D
:1019D000EC5CFF4F0C94131A0E94E3018091DF022C
:1019E0008111FACF80E00E949D0F81E00E949D0F3F
:1019F000D301E92D1D92EA95E9F7E12CF12C87013D
:101A0000A8019701C801B7010E945E1610929602C4
:101A10006091A3027091A4028091A5029091A60208
:101A200060939702709398028093990290939A0220
:101A30002091A7023091A8024091A9025091AA02D8
:101A400020939B0230939C0240939D0250939E02F0
:101A5000E090AB02F090AC020091AD021091AE02AA
:101A6000E0929F02F092A0020093A1021093A202C2
:101A7000A0908D02B0908E02C0908F02D090900204
:101A80001F921F921F921F921F921F920E947D040D
:101A90000F900F900F900F900F900F906BCF81E0F1
:101AA00080938C0267CF10928C0264CFA0908D023D
:101AB000B0908E02C0908F02D0909002E0909F0272
:101AC000F090A0020091A1021091A20220919B022D
:101AD00030919C0240919D0250919E02609197022C
:101AE000709198028091990290919A02E091BB02C4
:101AF000EF93E0919502EF93E0919402EF93E091E0
:101B00009302EF93E0919202EF93E0919102EF93B1
:101B10000E947D040F900F900F900F900F900F90E8
:101B200029CFA0908D02B0908E02C0908F02D090ED
:101B30009002E0909F02F090A0020091A10210910B
:101B4000A20220919B0230919C0240919D025091F3
:101B50009E026091970270919802809199029091F3
:101B60009A021F92C6CFA0908D02B0908E02C090B4
:101B70008F02D0909002E0909F02F090A00200911E
:101B8000A1021091A20220919B0230919C024091EF
:101B90009D0250919E0260919702709198028091EF
:101BA000990290919A026CCF86E00E94EF03E2CEF8
:101BB00085E00E94EF03DECE84E00E94EF03DACEE0
:101BC00083E00E94EF03D6CE82E00E94EF03D2CEE4
:101BD00081E00E94EF03CECE81E080939602CACED0
:101BE00010929602C7CE9091DF02992341F089832B
:101BF0000E94E3019091DF0289819111F8CF21E0E9
:101C000030E0893411F020E030E08901000F111F2D
:101C1000020F131FC801880F991F880F991FFC011D
:101C2000E457FD4F7F0160919F057091A005809161
:101C3000A1059091A2050E94E7172CE137EC41EB3A
:101C400052E40E943D17D70157966D937D938D9373
:101C50009C935A97C801880F991F880F991FFC0100
:101C6000E057FD4F7F016091A3057091A40580911D
:101C7000A5059091A6050E94E71724E731ED45EBF5
:101C800052E40E943D17D70157966D937D938D9333
:101C90009C935A97000F111F000F111F0C561D4FD8
:101CA0006091A7057091A8058091A9059091AA055A
:101CB0000E94E71725E535E545E052E40E943D170F
:101CC000F801678B708F818F928F54CE8AE30E94C8
:101CD0009A1052CEE85BFF4F0C94131A80918C023D
:101CE000813009F4CDC00E94850020919F0230917F
:101CF000A0024091A1025091A2020E94B5166093E9
:101D00009F027093A0028093A1029093A20232CE10
:101D100080918C02813009F4D2C00E94850020910C
:101D20009B0230919C0240919D0250919E020E9424
:101D3000B51660939B0270939C0280939D029093D2
:101D40009E0218CE0E9485000E94B6176093BB02C7
:101D500011CE80918C02813009F4D0C00E948500A0
:101D600020919702309198024091990250919A02E5
:101D70000E94B5166093970270939802809399021F
:101D800090939A02F7CD0E94850060939102709320
:101D900092028093930290939402ECCD0E9485006E
:101DA0002091AB023091AC024091AD025091AE0255
:101DB0000E94B5166093B7027093B8028093B9027F
:101DC0009093BA02D7CD0E9485002091A70230914E
:101DD000A8024091A9025091AA020E94B5166093F0
:101DE000B3027093B4028093B5029093B602C2CD51
:101DF0000E9485002091A3023091A4024091A50287
:101E00005091A6020E94B5166093AF027093B00283
:101E10008093B1029093B202ADCD0E948500609391
:101E2000AB027093AC028093AD029093AE02A2CD50
:101E30000E9485006093A7027093A8028093A90274
:101E40009093AA0297CD0E9485006093A30270939D
:101E5000A4028093A5029093A6028CCD0E948500D7
:101E600060938D0270938E0280938F029093900204
:101E700081CD0E9485000E94B617609395027ACDAD
:101E80000E9485002091960230E0F901EE0FFF1FBD
:101E9000E20FF31FEE0FFF1FEE0FFF1FEC56FD4F7B
:101EA0002789308D418D528D0E94B51660939F0217
:101EB0007093A0028093A1029093A2025BCD0E9436
:101EC00085002091960230E0F901EE0FFF1FE20F2E
:101ED000F31FEE0FFF1FEE0FFF1FE057FD4F278987
:101EE000308D418D528D0E94B51660939B02709388
:101EF0009C0280939D0290939E023CCD0E9485009F
:101F00002091960230E0F901EE0FFF1FE20FF31F60
:101F1000EE0FFF1FEE0FFF1FE457FD4F2789308D97
:101F2000418D528D0E94B51660939702709398026E
:101F30008093990290939A021DCDFF920F931F9365
:101F4000CF93DF93882309F449C020E363E395B17D
:101F5000977C922B95B916E0D6E051E041E0CFE3B3
:101F600001E092E0F92E7AE1ACE4B9E096B181119A
:101F70009C27442329F090FD13C0D11110C0602785
:101F800051112AC08CE0EFE9F5E0DF011D928A953E
:101F9000E9F7DF91CF911F910F91FF900895D150F4
:101FA000552341F092FD16C0111113C0442351F383
:101FB0006F2550E025B1362F3770232B25B9972F89
:101FC0009A95F1F795B1932795B9FD013197F1F7FE
:101FD000CDCF115051E0EECF40E0E4CF28E06BE0F0
:101FE000B6CFCF92DF92EF92FF926B017C0180E43B
:101FF000C81686E0D806E104F10408F449C060E0A0
:1020000070E788E399E3A70196010E94F11928324D
:1020100031054105510508F05AC028E230E040E0A2
:1020200050E0B90190E0809181009F5F887F892B0B
:102030008093810070938900609388002093BB0691
:102040003093BC064093BD065093BE06A70196018F
:1020500085E056954795379527958A95D1F7E09174
:102060009D05F0919E05EF5BFF4F6081718182813C
:1020700093810E94E119AA27BB27F8949093BA068E
:102080008093B9067894FF90EF90DF90CF900895F9
:10209000F0E4CF2EF6E0DF2EE12CF12C20EC37E23D
:1020A00049E050E0DA01C90136E0B695A795979569
:1020B00087953A95D1F7BC019C01AD01E6E0220F6E
:1020C000331F441F551FEA95D1F792E0ACCF21157D
:1020D000310581E04807510508F4A3CF21153105EA
:1020E00088E048075105F0F6DA01C90123E0B6950A
:1020F000A795979587952A95D1F7BC019C01AD01CD
:10210000E3E0220F331F441F551FEA95D1F791E0FA
:102110008ACF1F920F920FB60F9211248F9385B121
:10212000887F85B91092B1008F910F900FBE0F90EC
:102130001F90189590919905911105C0809398056D
:1021400081E08093990508951092DF0210929E0518
:1021500010929D05EFE6F0E080818D7F8083F894FA
:102160001092A7068091A5069091A6069093A406CA
:102170008093A3067894F8941092BA061092B90648
:10218000789408951F920F920FB60F921124CF9258
:10219000DF92EF92FF920F931F932F933F934F93F2
:1021A0005F936F937F938F939F93AF93BF93CF93DF
:1021B000DF93EF93FF9380919C0581112DC081E007
:1021C00080939C059091990591113CC030992EC047
:1021D00090919905911105C094E290939805809390
:1021E000990510929C05FF91EF91DF91CF91BF91DE
:1021F000AF919F918F917F916F915F914F913F919F
:102200002F911F910F91FF90EF90DF90CF900F9043
:102210000FBE0F901F90189580919A0590919B0585
:10222000019690939B0580939A05DDCF319913C059
:10223000909199059111D5CF95E29093980580934F
:102240009905CFCF0E94A410109293051092920589
:1022500010929C05C8CF32990AC0909199059111AE
:10226000C0CF96E29093980580939905BACF339B9F
:1022700027C085B19091B8069873877C892B85B962
:1022800085B1887F9091B806892B85B98AEF8093B4
:10229000B20082E08093B1007894C0919D05D09106
:1022A0009E05209709F44EC1E8818E2F90E087307B
:1022B000910508F096CFFC01E15AFF4F0C94131AD8
:1022C0009091990591118DCF9AE290939805809302
:1022D000990587CF5D9A10929E0510929D050E94E8
:1022E000A00A7FCF5F9810929E0510929D050E94D4
:1022F000A00A77CF5F9A10929E0510929D050E94CA
:10230000A00A6FCF5C9810929E0510929D050E94C6
:10231000A00A67CF5C9A10929E0510929D050E94BC
:10232000A00A5FCF8D858093B8060091B00610910A
:10233000B1062091B2063091B30649815A816B8172
:102340007C81400F511F621F731F4093B006509352
:10235000B1066093B2067093B306141615061606FE
:1023600017060CF0F8C181608093B8060E851F85B2
:1023700028893989401B510B620B730B4093B006BF
:102380005093B1066093B2067093B30640919F05D7
:102390005091A0056091A1057091A20583FF58C1DD
:1023A000415051096109710940939F055093A0055F
:1023B0006093A1057093A205C090AC06D090AD06C5
:1023C000E090AE06F090AF064D815E816F8178851A
:1023D0004C0D5D1D6E1D7F1D4093AC065093AD06E8
:1023E0006093AE067093AF06141615061606170610
:1023F0001CF58260401B510B620B730B4093AC06C3
:102400005093AD066093AE067093AF064091A3055E
:102410005091A4056091A5057091A60584FF25C182
:1024200041505109610971094093A3055093A405D6
:102430006093A5057093A6054091A8065091A90642
:102440006091AA067091AB064F5F5F4F6F4F7F4F51
:102450004093A8065093A9066093AA067093AB0612
:1024600090E389278093B8064017510762077307E6
:1024700008F061C08FA998ADA9ADBAAD481759074A
:102480006A077B0708F0FEC04091BB065091BC066E
:102490006091BD067091BE0680919405909195055E
:1024A000A0919605B0919705840F951FA61FB71FA1
:1024B000813828E3920721E0A207B10508F450C152
:1024C00080589843A140B109809394059093950555
:1024D000A0939605B09397050BA91CA92DA93EA919
:1024E0006091B4067091B5068091B6069091B706DA
:1024F000600F711F821F931F6093B4067093B5061F
:102500008093B6069093B7060A891B892C893D896A
:10251000061717072807390750F40093B4061093DD
:10252000B5062093B6063093B706C901B8010E94DC
:10253000F10F57CE5D9810929E0510929D050E9456
:10254000A00A4FCE9091930580919205981709F4B7
:1025500053C1C09192058C2F90E025E4C29FE00109
:102560001124C052DD4FD0939E05C0939D05209746
:1025700009F442C12881211197CE25E4289FE0016A
:10258000299FD00D1124C052DD4F6BA57CA58DA5D0
:102590009EA56093B4067093B5068093B60690939B
:1025A000B70600E41CE920E030E0009394051093A6
:1025B000950520939605309397050E94F10F8E851F
:1025C0009F85A889B989B595A79597958795B09561
:1025D000A095909581959F4FAF4FBF4F8093B006C8
:1025E0009093B106A093B206B093B3068093AC0665
:1025F0009093AD06A093AE06B093AF061092A806D6
:102600001092A9061092AA061092AB06FE01FF9640
:102610000190F081E02D309709F4DCC08191F894AD
:10262000F093A406E093A306E80FF11DF093A6062D
:10263000E093A5068FEF9FEF9093A2068093A106EB
:102640001092A7067894C0919D05D0919E052CCE3E
:102650004F5F5F4F6F4F7F4F40939F055093A00593
:102660006093A1057093A205A7CE4F5F5F4F6F4F98
:102670007F4F4093A3055093A4056093A5057093E5
:10268000A605DACE8BAD9CADADADBEAD48175907F2
:102690006A077B0709F488C0481759076A077B0750
:1026A00008F467C04091BB065091BC066091BD061E
:1026B0007091BE068091940590919505A091960524
:1026C000B0919705840F951FA61FB71F813828E387
:1026D000920721E0A207B10508F442C08058984350
:1026E000A140B1098093940590939505A093960518
:1026F000B09397054BA95CA96DA97EA98091B406FA
:102700009091B506A091B606B091B7064817590743
:102710006A077B0708F055C0841B950BA60BB70B07
:102720008093B4069093B506A093B606B093B7060F
:102730000FA518A929A93AA96091B4067091B50608
:102740008091B6069091B7066017710782079307CC
:1027500008F0EDCEE2CE0E851F85288939892CCE72
:102760008093940590939505A0939605B093970553
:1027700038CD6A897B898C899D890091B406109136
:10278000B5062091B6063091B7066017710782072B
:10279000930709F426CD6093B4067093B506809331
:1027A000B6069093B706C3CE80E49CE9A0E0B0E003
:1027B0008093940590939505A0939605B093970503
:1027C00010CD1092B4061092B5061092B606109273
:1027D000B706AECF88A5F8948093A7068091A5068A
:1027E0009091A6069093A4068093A3067894C09136
:1027F0009D05D0919E0558CD0E94A41010929C0575
:10280000F2CC8091DF0281110BC081E08093DF0266
:1028100080E38093B80680916F00826080936F00A0
:1028200008951F920F920FB60F9211242F933F938A
:102830008F939F93EF93FF938091B9069091BA067F
:102840002091A1063091A206820F931F9093A206B9
:102850008093A1062091A1063091A2068091B9062D
:102860009091BA062817390748F5E091A306F09130
:10287000A4068091A5069091A606E817F90709F429
:1028800042C0CF0101969093A4068093A306908145
:102890009093A006933048F51092A00680919F0671
:1028A00081111CC017BCFF91EF919F918F913F91B7
:1028B0002F910F900FBE0F901F90189580919F063B
:1028C0009091A00681110BC0992361F38FEF87BD12
:1028D0008091A00681508093A006E5CF90E08150C2
:1028E00080939F069923F1F2F1CF80919F06882370
:1028F00041F01092A0061092BA061092B90690E02C
:10290000EECF87E0EDCF9091A7069093A006C2CFBF
:102910006F927F928F929F92AF92BF92CF92DF92EF
:10292000EF92FF920F931F93CF93DF938C01EB01F4
:102930007A01FC01828C938CA48CB58C68807980A0
:10294000CA80DB809301A601C501B4010E9438173B
:1029500087FF38C0A5019401C501B4010E94271961
:102960004B015C0120E03AEB4BE55AECF80162A127
:1029700073A184A195A10E9427199B01AC01C501F7
:10298000B4010E94B4160E949A195B018C019B014C
:10299000AC01B301C6010E94381787FF02C0530182
:1029A00086019501A801B301C6010E94381788234A
:1029B00049F0C501D80188839983AA83BB8381E04C
:1029C000F7018083DF91CF911F910F91FF90EF90DE
:1029D000DF90CF90BF90AF909F908F907F906F903F
:1029E00008952F923F924F925F926F927F928F92B3
:1029F0009F92AF92BF92CF92DF92EF92FF920F938E
:102A00001F93CF93DF93CDB7DEB760970FB6F894DF
:102A1000DEBF0FBECDBF1C012A013B014801590199
:102A2000FC0162897389848995890E94E5176B018D
:102A30007C01A30192010E9427190E9421170E9484
:102A4000B6172B013C01F10163A774A785A796A7D0
:102A5000A5019401C701B6010E9427190E94211700
:102A60000E94B6174B015C01F10167A770AB81AB07
:102A700092AB23A934A945A956A9A0EEBEE20E94B3
:102A8000191A69837A838B839C830E94E7176D836D
:102A90007E838F839887C301B2010E94E5172B01C3
:102AA0003C01A7019601C701B6010E9427196B01DD
:102AB0007C01A3019201C301B2010E942719698719
:102AC0007A878B879C872D813E814F815885CA01EB
:102AD000B9010E94B5166D877E878F87988B2985EF
:102AE0003A854B855C85C701B6010E94B4162D85D9
:102AF0003E854F8558890E943D170E9421170E94EC
:102B0000AF172B013C01C501B4010E94E5179B01E1
:102B1000AC010E9427194B015C01A70196010E949C
:102B2000B4166B017C0169817A818B819C819095BF
:102B30008095709561957F4F8F4F9F4F0E94E7174B
:102B40009B01AC010E94B5169B01AC01C701B60107
:102B50000E943D170E942218F101C684D784E088A4
:102B6000F188A701960124193509460957092983D7
:102B70003A834B835C830E94AF1729813A814B8152
:102B80005C81261B370B480B590BDA01C90157FD35
:102B900026C0F10147AA50AE61AE72AE840D951DFC
:102BA000A61DB71D83AF94AFA5AFB6AF60960FB6A5
:102BB000F894DEBF0FBECDBFDF91CF911F910F9173
:102BC000FF90EF90DF90CF90BF90AF909F908F904D
:102BD0007F906F905F904F903F902F900895C70126
:102BE000B6010E94E7172D853E854F8558890E94C2
:102BF000271929853A854B855C850E94B4169B016F
:102C0000AC01C501B4010E94B5164B015C0120E086
:102C100030E040E850E46D817E818F8198850E948C
:102C200027199B01AC01C501B4010E943D170E9408
:102C300021170E94AF1797FD11C02B013C01C6164A
:102C4000D706E806F90624F080E090E0DC01A1CF89
:102C50002601370180E090E0DC019BCF60E070E06E
:102C6000CB01EBCFCF93ABEAB5E0C5E43091920551
:102C7000CD01232F622F022E000C770B409193057C
:102C800050E064177507C1F0C69FF001C79FF00DB3
:102C90001124E15EFC4F40815181A417B50729F052
:102CA0002F5F30E02A3031F7E4CFDD9686E0AF3990
:102CB000B807E1F680E090E0CF9108958F929F925F
:102CC000AF92BF92CF92DF92EF92FF920F931F933A
:102CD000CF93DF9349015A01670178012CE137EC6A
:102CE00041EB52E40E9427190E94F418C3EDD2E090
:102CF000688379838A839B8324E731ED45EB52E433
:102D0000C501B4010E9427190E94F4186C837D83C9
:102D10008E839F8325E535E545E052E4C701B60182
:102D20000E9427190E94F418688779878A879B87F1
:102D30001092CF021092D0021092D1021092D202C1
:102D40008CE0E3ECF2E0DF011D928A95E9F7DF9178
:102D5000CF911F910F91FF90EF90DF90CF90BF9098
:102D6000AF909F908F9008955058BB27AA270E943C
:102D7000CC160C949D180E948F1838F00E9496185B
:102D800020F039F49F3F19F426F40C948C180EF4BB
:102D9000E095E7FB0C945D18E92F0E94AE1858F3FC
:102DA000BA17620773078407950720F079F4A6F530
:102DB0000C94E8180EF4E0950B2EBA2FA02D0B0101
:102DC000B90190010C01CA01A0011124FF27591B70
:102DD00099F0593F50F4503E68F11A16F040A22F76
:102DE000232F342F4427585FF3CF469537952795E7
:102DF000A795F0405395C9F77EF41F16BA0B620BE6
:102E0000730B840BBAF09150A1F0FF0FBB1F661F2C
:102E1000771F881FC2F70EC0BA0F621F731F841F6F
:102E200048F4879577956795B795F7959E3F08F095
:102E3000B0CF9395880F08F09927EE0F9795879557
:102E400008950E94D01890F09F3748F4911116F41D
:102E50000C94E91860E070E080E89FE3089526F0A4
:102E60001B16611D711D811D0C9463180C947E1836
:102E70000E94391808F481E008950E9451170C94BB
:102E80009D180E94961858F00E948F1840F029F45F
:102E90005F3F29F00C945D1851110C94E9180C94C3
:102EA0008C180E94AE1868F39923B1F3552391F35F
:102EB000951B550BBB27AA2762177307840738F0A9
:102EC0009F5F5F4F220F331F441FAA1FA9F335D006
:102ED0000E2E3AF0E0E832D091505040E695001CBA
:102EE000CAF72BD0FE2F29D0660F771F881FBB1F74
:102EF000261737074807AB07B0E809F0BB0B802D52
:102F0000BF01FF2793585F4F3AF09E3F510578F07D
:102F10000C945D180C94E9185F3FE4F3983ED4F3E9
:102F2000869577956795B795F7959F5FC9F7880F51
:102F3000911D9695879597F90895E1E0660F771FA3
:102F4000881FBB1F621773078407BA0720F0621B34
:102F5000730B840BBA0BEE1F88F7E09508950E945F
:102F6000B6176894B1110C94E91808950E94B61828
:102F700088F09F5798F0B92F9927B751B0F0E1F03A
:102F8000660F771F881F991F1AF0BA95C9F714C0EA
:102F9000B13091F00E94E818B1E008950C94E8185F
:102FA000672F782F8827B85F39F0B93FCCF3869523
:102FB00077956795B395D9F73EF490958095709580
:102FC00061957F4F8F4F9F4F0895E89409C097FBFD
:102FD0003EF490958095709561957F4F8F4F9F4FF0
:102FE0009923A9F0F92F96E9BB279395F695879534
:102FF00077956795B795F111F8CFFAF4BB0F11F4F7
:1030000060FF1BC06F5F7F4F8F4F9F4F16C088239D
:1030100011F096E911C0772321F09EE8872F762FD3
:1030200005C0662371F096E8862F70E060E02AF014
:103030009A95660F771F881FDAF7880F9695879500
:1030400097F908950E94D01890F09F3748F4911195
:1030500016F00C94E91860E070E080E89FEB0895AA
:1030600026F41B16611D711D811D0C9463180C94B0
:103070007E18990F0008550FAA0BE0E8FEEF161610
:103080001706E807F907C0F012161306E407F5075C
:1030900098F0621B730B840B950B39F40A2661F0D0
:1030A000232B242B252B21F408950A2609F4A14073
:1030B000A6958FEF811D811D089597F99F6780E880
:1030C00070E060E00895882371F4772321F0985030
:1030D000872B762F07C0662311F499270DC09051D6
:1030E000862B70E060E02AF09A95660F771F881FA4
:1030F000DAF7880F9695879597F908959F3F31F0F5
:10310000915020F4879577956795B795880F911D15
:103110009695879597F908959FEF80EC0895002480
:103120000A941616170618060906089500240A942C
:1031300012161306140605060895092E0394000CB2
:1031400011F4882352F0BB0F40F4BF2B11F460FF41
:1031500004C06F5F7F4F8F4F9F4F089557FD90586A
:10316000440F551F59F05F3F71F04795880F97FB4B
:10317000991F61F09F3F79F0879508951216130605
:103180001406551FF2CF4695F1DF08C01616170634
:103190001806991FF1CF8695710561050894089569
:1031A0000E94B618A0F0BEE7B91788F4BB279F3875
:1031B00060F41616B11D672F782F8827985FF7CF18
:1031C000869577956795B11D93959639C8F30895BF
:1031D000E894BB2766277727CB0197F908950E94CB
:1031E000391808F48FEF08950E94B61858F19E57C9
:1031F00060F19851A0F0E9F0983020F5092E992758
:10320000660F771F881F991F0A94D1F712C0062EE8
:10321000672F782F8827985F11F4000C07C0993F1B
:10322000B4F38695779567959395D9F7611D711DD0
:10323000811D3EF490958095709561957F4F8F4FDD
:103240009F4F089568940C94E9180C94E8180E9414
:103250003A190C949D180E948F1838F00E94961805
:1032600020F0952311F00C945D180C948C18112407
:103270000C94E9180E94AE1870F3959FC1F3950F56
:1032800050E0551F629FF001729FBB27F00DB11DEA
:10329000639FAA27F00DB11DAA1F649F6627B00D7A
:1032A000A11D661F829F2227B00DA11D621F739F63
:1032B000B00DA11D621F839FA00D611D221F749F71
:1032C0003327A00D611D231F849F600D211D822FB8
:1032D000762F6A2F11249F5750409AF0F1F08823DF
:1032E0004AF0EE0FFF1FBB1F661F771F881F91500C
:1032F0005040A9F79E3F510580F00C945D180C9446
:10330000E9185F3FE4F3983ED4F386957795679587
:10331000B795F795E7959F5FC1F7FE2B880F911D35
:103320009695879597F9089519F416F40C948C18CE
:103330000C947E180E94B618B8F39923C9F3B6F31B
:103340009F57550B87FF0E94DA190024A0E640EA38
:10335000900180585695979528F4805C660F771FEA
:10336000881F20F026173707480730F4621B730BBD
:10337000840B202931294A2BA695179407942025E0
:1033800031254A2758F7660F771F881F20F0261728
:103390003707480730F4620B730B840B200D311D87
:1033A000411DA09581F7B901842F9158880F9695FA
:1033B0008795089591505040660F771F881FD2F768
:1033C0000895DB018F939F930E94191ABF91AF91CB
:1033D000A29F800D911DA39F900DB29F900D11246F
:1033E0000895A1E21A2EAA1BBB1BFD010DC0AA1F46
:1033F000BB1FEE1FFF1FA217B307E407F50720F05E
:10340000A21BB30BE40BF50B661F771F881F991FD8
:103410001A9469F760957095809590959B01AC0121
:10342000BD01CF010895EE0FFF1F0590F491E02D2F
:1034300009940E94241AA59F900DB49F900DA49FFB
:10344000800D911D11240895A29FB001B39FC0016A
:10345000A39F700D811D1124911DB29F700D811DC0
:0A3460001124911D0895F894FFCF88
:02346A0001FE61
:00000001FF
