:100000000C9466000C9483000C9483000C94830081
:100010000C9483000C9483000C9483000C94830054
:100020000C9483000C94F2100C9483000C942B110C
:100030000C9483000C9483000C9483000C94830034
:100040000C94DF140C9483000C94260B0C94AD0BD1
:100050000C9483000C9483000C9483000C94830014
:100060000C9483000C9483002D0D530D2D0D530D16
:10007000C60DC20D610D660E660E630E5F0E5B0E41
:10008000570E530E4F0E4B0E470E260E040EC90D83
:10009000AC0F2A0DA10F2A0D960F8B0F800F6B0F3F
:1000A000560F410F2A0D2A0D360F2A0D150F2A0D56
:1000B0002A0D2A0D2A0D2A0D1C0FFB0EE10E14121B
:1000C0000C120412FC11F411EC115F1311241FBE69
:1000D000CFEFD8E0DEBFCDBF11E0A0E0B1E0E2E0BD
:1000E000F5E302C005900D92A230B107D9F726E0E2
:1000F000A2E0B1E001C01D92A33CB207E1F70E946B
:10010000E40B0C947F1A0C940000CF93AFEDB2E097
:10011000C5E430918606CD01232F622F022E000CFC
:10012000770B4091870650E064177507C1F0C69FB2
:10013000F001C79FF00D1124ED5EFB4F408151810E
:10014000A417B50729F02F5F30E02A3031F7E4CF4C
:10015000DD9683E0A33DB807E1F680E090E0CF9123
:100160000895EEEBF2E06381862F90E0A0E0B0E02E
:1001700080589109A109B109880F991FAA1FBB1FB7
:10018000880F991FAA1FBB1F880F991FAA1FBB1F8B
:10019000880F991FAA1FBB1F880F991FAA1FBB1F7B
:1001A000880F991FAA1FBB1FAC01BD01440F551F2B
:1001B000661F771F828190E0A0E0B0E0805891092F
:1001C000A109B109840F951FA61FB71F880F991F9A
:1001D000AA1FBB1F880F991FAA1FBB1F880F991F3B
:1001E000AA1FBB1F880F991FAA1FBB1F880F991F2B
:1001F000AA1FBB1F880F991FAA1FBB1FAC01BD01FF
:10020000440F551F661F771F818190E0A0E0B0E08A
:1002100080589109A109B109840F951FA61FB71F26
:10022000880F991FAA1FBB1F880F991FAA1FBB1FEA
:10023000880F991FAA1FBB1F880F991FAA1FBB1FDA
:10024000880F991FAA1FBB1F880F991FAA1FBB1FCA
:10025000880F991FAA1FBB1F2081820F911DA11D0E
:10026000B11DBC01CD0160587109810998400E94FF
:10027000331820E030E04AE754E40E9489170895DB
:10028000209102012F5F203891F09091830129176E
:10029000E1F3E0910201F0E0ED5FFE4F80832093F7
:1002A00002018091C10080628093C100089520E026
:1002B000ECCF8F929F92AF92BF92CF92DF92EF924C
:1002C000FF920F931F93CF93DF9349015A01670168
:1002D00078012CE137EC41EB52E40E9473190E9443
:1002E0004019C3EDD2E0688379838A839B8324E736
:1002F00031ED45EB52E4C501B4010E9473190E942F
:1003000040196C837D838E839F8325E535E545E029
:1003100052E4C701B6010E9473190E944019688710
:1003200079878A879B871092CF021092D002109211
:10033000D1021092D2028CE0E3ECF2E0DF011D92D8
:100340008A95E9F7DF91CF911F910F91FF90EF9080
:10035000DF90CF90BF90AF909F908F900895CF93F4
:10036000C82FCB01BA0120E030E04AE754E40E94F4
:1003700073190E944019AB01BC01785F842F80681B
:10038000209102012F5F203809F495C090918301DC
:100390009217E1F3E0910201F0E0ED5FFE4F808300
:1003A000209302018091C10080628093C100DB0133
:1003B000CA0180789F73AA27BB2737E0B695A79517
:1003C000979587953A95D1F78058209102012F5F34
:1003D000203809F478C0909183019217E1F3E091FD
:1003E0000201F0E0ED5FFE4F8083209302018091D7
:1003F000C10080628093C100DB01CA018827907C24
:10040000AF71BB272EE0B695A795979587952A954E
:10041000D1F78058209102012F5F203809F451C094
:10042000909183019217E1F3E0910201F0E0ED5F1A
:10043000FE4F8083209302018091C10080628093EF
:10044000C10044275527607E7F7085E176956795CA
:10045000579547958A95D1F74058209102012F5F13
:10046000203869F1909183019217E1F3E091020144
:10047000F0E0ED5FFE4F4083209302018091C100C8
:1004800080628093C100209102012F5F2038A9F083
:10049000909183019217E1F3E0910201F0E0ED5FAA
:1004A000FE4FC083209302018091C100806280933F
:1004B000C100CF91089520E069CF20E0E9CF20E08E
:1004C000D1CF20E0ADCF20E086CF8F929F92AF9228
:1004D000BF92CF92DF92EF92FF920F931F93CF9331
:1004E00080918D06811127C18091BD02811105C0C7
:1004F0008091BC02882309F40DC11092BD02909135
:10050000870680918606981709F46FC14A9B69C1D6
:100510004B9B63C1C0918C06C03209F4F5C08C2F8F
:100520000E944001309B02C1319906C0C53209F4D6
:10053000E7C185E20E944001329906C0C63209F443
:10054000DCC186E20E944001339906C0CA3209F438
:10055000D1C18AE20E944001349906C0CB3209F42D
:10056000C6C18BE20E944001359905C0CD3219F019
:100570008DE20E944001C0919602609193067091B5
:10058000940680919506909196060E9433182CE16E
:1005900037EC41EB52E40E9489172C2F30E0F9012F
:1005A000EE0FFF1FE20FF31FEE0FFF1FEE0FFF1FF7
:1005B000E457FD4F2789308D418D528D0E940017E1
:1005C000AB01BC0188E70E94AF01C0919602609127
:1005D0009706709198068091990690919A060E94CC
:1005E000331824E731ED45EB52E40E9489172C2F94
:1005F00030E0F901EE0FFF1FE20FF31FEE0FFF1FB8
:10060000EE0FFF1FE057FD4F2789308D418D528D32
:100610000E940017AB01BC0189E70E94AF01C091A5
:10062000960260919B0670919C0680919D06909128
:100630009E060E94331825E535E545E052E40E9408
:1006400089172C2F30E0F901EE0FFF1FE20FF31F87
:10065000EE0FFF1FEE0FFF1FEC56FD4F2789308D69
:10066000418D528D0E940017AB01BC018AE70E94A8
:10067000AF0180918B02882309F49EC08091C3064C
:10068000853C09F040C183EC96E028E08F3F92075B
:1006900011F008F038C160E070E0FC0105C088E0AE
:1006A000EF3FF80709F030F431966F5F7F4F80819C
:1006B000853CA9F380E090E00E943118AB01BC01B9
:1006C00085E70E94AF01F89460918E0670918F06C5
:1006D000789480E090E00E943118AB01BC0184E77F
:1006E0000E94AF018091BC02811190C089E0CF913E
:1006F0001F910F91FF90EF90DF90CF90BF90AF9040
:100700009F908F900C94400130990ECF84E20E940C
:1007100040010ACFCF911F910F91FF90EF90DF9092
:10072000CF90BF90AF909F908F900895C43271F793
:10073000319BFFCE01CF1092870610928606609102
:100740009B0670919C0680919D0690919E060E944A
:10075000331825E535E545E052E40E9489176B0121
:100760007C0160919706709198068091990690910E
:100770009A060E94331824E731ED45EB52E40E94BB
:1007800089174B015C0160919306709194068091EA
:100790009506909196060E9433182CE137EC41EBB8
:1007A00052E40E94891787017601A50194010E94F5
:1007B00059011092C20298CE6091890270918A020A
:1007C00080E090E00E943118AB01BC0187E70E94F5
:1007D000AF0181E080938B0251CF83E40E944001FE
:1007E00099CE82E40E94400193CE9091880280913C
:1007F000870298138BCE81E40E94400183B7816009
:1008000083BF889583B78E7F83BF80CE1092BC0252
:1008100040E050E068EC74E486E70E94AF0120916C
:10082000A3023091A4024091A5025091A6026091CA
:10083000AF027091B0028091B1029091B2020E9419
:100840000017AB01BC0181E60E94AF012091A70215
:100850003091A8024091A9025091AA026091B3027E
:100860007091B4028091B5029091B6020E94001777
:10087000AB01BC0182E60E94AF012091AB02309136
:10088000AC024091AD025091AE026091B7027091FE
:10089000B8028091B9029091BA020E940017AB0190
:1008A000BC0183E60E94AF0140918D0250918E02FF
:1008B00060918F027091900287E60E94AF01409193
:1008C000910250919202609193027091940288E695
:1008D0000E94AF016091950270E080E090E00E947C
:1008E0003118AB01BC0189E60E94AF01FFCE359BF8
:1008F0003FCE41CE349B35CE37CE339B2ACE2CCE45
:10090000329B1FCE21CE40E050E0BA01D9CECF932A
:10091000109286029091880280918702981324C0D9
:1009200080E0C1E00AC00E94650290918802809137
:100930008702981319C0809186028111F4CF8091AB
:10094000890290918A02019690938A02809389028B
:1009500010928B02C09386020E94650290918802D9
:1009600080918702981739F3F894E0918802F0E0BB
:10097000E957FE4F8081909188029F5F9093880293
:100980009F3FC9F0909101019F5F90930101909169
:1009900086019F5F90938601903151F491E090938E
:1009A00085019091C10090629093C10010928601E0
:1009B0007894CF91089510928802E4CF0F931F93FB
:1009C000CF93DF93082F909187069F5F9A3039F17C
:1009D000C92F092E000CDD0B192F2091860630E05F
:1009E000C217D30741F40E9465022091860630E0C9
:1009F0002C173D07C1F3E091870685E4E89FF001DD
:100A00001124EC52FC4F0083FF9611821082109348
:100A10008706DF91CF911F910F910C94CF1410E0B6
:100A2000C0E0D0E0DACF2F923F924F925F926F9268
:100A30007F928F929F92AF92BF92CF92DF92EF926E
:100A4000FF920F931F93CF93DF93CDB7DEB7E1975C
:100A50000FB6F894DEBF0FBECDBF29013A01E9827F
:100A6000FA820B831C83AD8ABE8ACF8AD88E2A96DF
:100A70008CAC9DACAEACBFAC2A972B96EFAC2B9751
:100A80002C96FFAC2C972CE137EC41EB52E40E9402
:100A900073190E94401969877A878B879C8724E79E
:100AA00031ED45EB52E4C301B2010E9473190E947B
:100AB00040196D8F7E8F8F8F98A325E535E545E032
:100AC00052E469817A818B819C810E9473190E9412
:100AD000401969A37AA38BA39CA3809187068F5F9B
:100AE00089838A3009F412C5082E000C990B0091F5
:100AF000860610E00817190741F40E9465028091EC
:100B0000860690E080179107C1F300918706202E9A
:100B1000312C25E4029F800111240C521C4FD80176
:100B20001C92F110A4C4F801FF961182108285E492
:100B3000829D8001839D100D11240C521C4FF801E1
:100B4000E0A620E030E040E857E4C501B4010E948F
:100B5000731925E831EB45E058E30E9473190E94B0
:100B600002186D837E838F839887D80197967C9334
:100B70006E9396971D961C928091D3029091D40209
:100B8000A091D502B091D60229853A854B855C8526
:100B9000281739074A075B071CF428E0F801258766
:100BA0000091D7021091D8022091D9023091DA0237
:100BB0004D8D5E8D6F8D78A14017510762077307C9
:100BC0005CF445E4429DF001439DF00D1124EC528C
:100BD000FC4F458540614587C090DB02D090DC0228
:100BE000E090DD02F090DE0249A15AA16BA17CA148
:100BF0004C155D056E057F050CF42FC349855A859C
:100C00006B857C85481B590B6A0B7B0B2A013B01CA
:100C100077FDE5C4E5E4E29DC001E39D900D11245C
:100C2000FC01EC52FC4F41825282638274828D8CB3
:100C30009E8CAF8CB8A0801A910AA20AB30A898A46
:100C40009A8AAB8ABC8AB7FCD2C4E5E4E29D9001E3
:100C5000E39D300D1124F901EC52FC4F09891A89EA
:100C60002B893C89058316832783308789A19AA124
:100C7000ABA1BCA18C199D09AE09BF096C017D0116
:100C80008C019D01B7FDBFC495E4929DD001939D59
:100C9000B00D1124FD01EC52FC4F01871287238710
:100CA000348789899A89AB89BC8984159505A605FD
:100CB000B70508F4C7C22C013D0180179107A207B0
:100CC000B30708F4BCC225E4229DC001239D900D0A
:100CD00011248C010C521C4FD8011E964D925D922E
:100CE0006D927C925197411451046104710409F48E
:100CF000C0C2CB01BA010E9433182CE137EC41EBA2
:100D000052E40E948917698B7A8B8B8B9C8BC5016F
:100D1000B4010E94331824E731ED45EB52E40E9400
:100D20008917698F7A8F8B8F9C8FC701B6010E94BC
:100D3000331825E535E545E052E40E9489176CA794
:100D40007DA78EA79FA729893A894B895C89CA010B
:100D5000B9010E9473194B015C01298D3A8D4B8DAD
:100D60005C8DCA01B9010E9473196D877E878F87D8
:100D7000988B2CA53DA54EA55FA5CA01B9010E947F
:100D800073196B017C012D853E854F855889C501FE
:100D9000B4010E940117A70196010E9401170E9449
:100DA000E6196D877E878F87988BF80162A373A3FE
:100DB00084A395A39B01AC0160E070E080E89FE311
:100DC0000E9489176B017C019B01AC016D897E89B2
:100DD0008F89988D0E9473196DA37EA38FA398A706
:100DE0009B01AC016D857E858F8598890E94731962
:100DF0006D8B79A78AA79BA7CB01AAA5BBA5F801F4
:100E0000868B978BA08FB18FC301B2010E943318DC
:100E10004B015C012DA13EA14FA158A50E94731961
:100E20000E946D170E9402182B013C01D8015296B6
:100E30006D937D938D939C935597F801EF5BFF4FD6
:100E4000FEA3EDA32D813E81B90180E090E00E94D8
:100E500031186D837E838F839887C301B2010E940E
:100E600031189B01AC016D817E818F8198850E9434
:100E7000891720E030E040E05AE40E9473190E9494
:100E80000218ADA1BEA16D937D938D939C93139792
:100E9000A5019401C701B6010E94731920E03AEB45
:100EA0004BED59E40E94731920E030E84BE356E41F
:100EB0000E9489170E946D170E94FB17F80163AB0F
:100EC00074AB85AB96ABA701960169897A898B894A
:100ED0009C890E9473192B013C01A7019601698D21
:100EE0007A8D8B8D9C8D0E9473196DA37EA38FA329
:100EF00098A7A70196016CA57DA58EA59FA50E9428
:100F000073194B015C0190918706809186069817B2
:100F100009F458C00091CF020D831091D002198BB3
:100F20000091D1021091D20220E030E0A9016D8140
:100F30007989C8010E943B1918160CF043C08091B2
:100F4000C3029091C402A091C502B091C6029C0157
:100F5000AD015058C301B2010E9473196B017C01AD
:100F60002091C7023091C8024091C9025091CA0233
:100F70006DA17EA18FA198A50E9473199B01AC0160
:100F8000C701B6010E9400176B017C012091CB02C2
:100F90003091CC024091CD025091CE02C501B401F6
:100FA0000E9473199B01AC01C701B6010E94001792
:100FB0006B017C0123E333E343E75FE30E94841783
:100FC00087FDB1C21D82198A00E010E085E4829D90
:100FD000F001839DF00D1124EC52FC4F8D81998915
:100FE000D801868F978FA0A3B1A320E03AEB4BE501
:100FF0005AEC6D857E858F8598890E9473199B01B7
:10100000AC0160E070E0CB010E9400170E94E6197D
:101010007B018D87998F9B01AC016D817989C80116
:101020000E94841787FD76C2FE2DEF2D9D85898D48
:1010300045E4429D9001439D300D1124A9014C527D
:101040005C4F6A014F2F5E2F692F782FD6015A9679
:101050004D935D936D937C935D9797014D85598D6D
:101060006D8979A58AA59BA50E94841718160CF492
:1010700056C281E0F60182A785E4829DF001839D3E
:10108000F00D1124EC52FC4F81E081A74092C30285
:101090005092C4026092C5027092C6020DA11EA1B8
:1010A0002FA138A50093C7021093C8022093C9024C
:1010B0003093CA028092CB029092CC02A092CD02D1
:1010C000B092CE028D8999A5AAA5BBA58093CF0227
:1010D0009093D002A093D102B093D20219811093C1
:1010E000870629853A854B855C852093D30230930A
:1010F000D4024093D5025093D6024D8D5E8D6F8DF4
:1011000078A14093D7025093D8026093D90270938C
:10111000DA0269A17AA18BA19CA16093DB02709392
:10112000DC028093DD029093DE02F0908706E0E01F
:10113000F0E000E010E025E4822E332433946DC00B
:10114000FA942F2D0F2C000C330B829EC001839E2E
:10115000900D1124DC01AC52BC4F6D01011511053D
:1011600009F459C0309709F456C0D8019A968C9169
:101170009A97811197C05E96EC905E975F96BC90AF
:101180005F979096AC90909791969C90428C538CE0
:10119000648C758CA30192016E2D7B2D8A2D992D67
:1011A0000E943B1918166CF520E03AEB4BE55AEC1F
:1011B000F80162A173A184A195A10E9473196983AA
:1011C0007A838B839C83A3019201C301B2010E94A5
:1011D000731929813A814B815C810E9400170E941A
:1011E000E6192B013C019B01AC016E2D7B2D8A2D54
:1011F000992D0E94841787FD04C0E42CB52CA62CE1
:10120000972C8E2D9B2DAA2DB92DF801828F938FAF
:10121000A48FB58F31A6F80186018091860690E0F3
:101220002F2D0F2C000C330B2817390709F447C05A
:10123000F11086CF29E030E099E0F92E86CF280121
:10124000390141CDD301C2012C013D018017910725
:10125000A207B30708F037CDF2CF45E4429DF00175
:10126000439DF00D1124EC52FC4F458540624587AB
:10127000C5CCE1960FB6F894DEBF0FBECDBFDF91AF
:10128000CF911F910F91FF90EF90DF90CF90BF9083
:10129000AF909F908F907F906F905F904F903F9016
:1012A0002F900895D8015E96EC905E975F96BC9063
:1012B0005F979096AC90909791969C90A2CF10914A
:1012C0008606E12CF12CE0E0F0E005E402C0F70135
:1012D0007901412F012E000C550B2091870630E03B
:1012E0004217530711F1049F9001059F300D1124FF
:1012F0002C523C4F309731F0E114F10419F082A5E3
:10130000882329F01F5F1A3011F710E0E0CFA70102
:10131000475D5F4FB701665E7F4FCF0128AB39ABAA
:101320000E94561539A928A9EDCF309739F0E1145C
:10133000F10421F082A5882309F46DC1B0908606DE
:10134000E12CF12C85E4A82E4B2D0B2C000C550B19
:101350008091870690E04817590709F44BC0A49E76
:10136000C001A59E900D1124FC01EC52FC4F6F01B1
:10137000E114F104B1F1D70199968C91811103C068
:1013800081A5882371F1F70146885788608C718C9C
:10139000A49EF001A59EF00D1124EC52FC4FA30178
:1013A0009201628D738D848D958D0E94891769835A
:1013B0007A838B839C83A3019201D7015A966D9106
:1013C0007D918D919C915D970E948917AB01BC0125
:1013D00009811A812B813C81C7010E94BF15F70149
:1013E00011A6B394FAE0BF1611F07601ADCFB12C7F
:1013F0007601AACFD70156968D909D90AD90BC9066
:101400005997A501940160E070E0CB010E94891713
:101410002B013C01A5019401F701628D738D848D30
:10142000958D0E948917AB01BC0193018201C70110
:101430000E94BF15D70199961C92E1960FB6F894B9
:10144000DEBF0FBECDBFDF91CF911F910F91FF90F7
:10145000EF90DF90CF90BF90AF909F908F907F9054
:101460006F905F904F903F902F900C94CF140E94FC
:101470008500F801FF9691838083009751F48F01D6
:101480000E9465020E948500F80191838083009785
:10149000B9F3FCE3FF1508F4C8C0FC01F08285E451
:1014A000829DF001839DF00D1124ED5EFB4F0081C4
:1014B00011810F5F1F4F6801CF0CD11C08C08058ED
:1014C000D8018D938D01AC15BD0509F430CB0E9478
:1014D000870487FDF4CF8AE3E1960FB6F894DEBF68
:1014E0000FBECDBFDF91CF911F910F91FF90EF9075
:1014F000DF90CF90BF90AF909F908F907F906F9034
:101500005F904F903F902F900C94031180E090E0FB
:101510001982EDCAFD81E989902F812F89CDD601ED
:101520009A961C92A9CD2D813989A8016D8979A53A
:101530008AA59BA50E943B19181634F00D890D83CE
:1015400019A5198B0AA51BA523E333E343E75FEB3A
:10155000C701B6010E943B1918160CF037CDA70140
:10156000960160E070E080E89FE30E94001720E0B1
:1015700030E040E05FE30E9473190E94E6196B01BE
:101580007C0120E030EC48E256E40E947319698F38
:101590007A8F8B8F9C8FA701960160E070E080E8C6
:1015A0009FE30E9400179B01AC01698D7A8D8B8DA2
:1015B0009C8D0E9489170E94E6196B01F82EE92E76
:1015C0009B01482F592F6D817989C8010E9484178A
:1015D00087FDFCCCCD82D98A0F2D1E2DF7CC44245B
:1015E00055243201441A550A660A770A13CB882714
:1015F0009927DC0188199909AA09BB09898B9A8B5B
:10160000AB8BBC8B22CB002711279801081B190B31
:101610002A0B3B0B39CBA701475D5F4FB701665ED5
:101620007F4FCF010E94561589CE88E255CF909109
:10163000870680918606981741F0809186068F5F15
:101640008A3009F480E08093860608951F920F92F5
:101650000FB60F9211242F933F934F935F936F9385
:101660007F938F939F93AF93BF93CF93EF93FF930A
:101670008091C000C091C60083FD3DC0CC23A9F17C
:101680008091000181111BC081E080930001809155
:101690008401C81719F08DE30E940311C03278F558
:1016A000C13009F448C0C23009F44DC0C33009F458
:1016B00050C0C430E1F183E20E94031104C01092D3
:1016C0000001C0938401FF91EF91CF91BF91AF9141
:1016D0009F918F917F916F915F914F913F912F914A
:1016E0000F900FBE0F901F9018951092860181E009
:1016F00080930001E8CF8CE20E940311BFCFE091FC
:10170000870281E08E0F8F3F81F0909188028917C8
:10171000B1F0F0E0E957FE4FC083809387028091DB
:101720000101815080930101CECF80E0EECF81E0B6
:101730008093BC02C8CF81E20E940311C4CF82E231
:101740000E940311C0CF80E280938C0610928D0618
:10175000BACF81E08093BD02B6CF1F920F920FB631
:101760000F9211248F939F93EF93FF9380918301A6
:10177000909185019923B9F095E09093C60010925D
:10178000850190910201891305C08091C1008F7D70
:101790008093C100FF91EF919F918F910F900FBEA9
:1017A0000F901F901895E82FF0E0ED5FFE4F9081AD
:1017B0009093C6008F5F803819F080938301E1CF4A
:1017C00080E080938301DDCFCF93DF931F92CDB76D
:1017D000DEB778941092C50080E18093C4008091B8
:1017E000C0008D7F8093C0008091C1008061809394
:1017F000C1008091C10088608093C1008091C100C8
:1018000080688093C10049E759EE66EF72E48AE68A
:101810000E94AF01DD24D394D0928C0280E090E04E
:10182000AAEFB5E480938D0290938E02A0938F026D
:10183000B093900257E9652E52E0752E6CE0C62EEB
:10184000D301EC2D1D92EA95E9F7109291021092C6
:1018500092021092930210929402109295021092AA
:10186000BB021092960280E090E0A0EAB0E4809380
:10187000A3029093A402A093A502B093A602809322
:10188000A7029093A802A093A902B093AA02109273
:10189000AB021092AC021092AD021092AE02809395
:1018A000AF029093B002A093B102B093B2028093C2
:1018B000B3029093B402A093B502B093B602109213
:1018C000B7021092B8021092B9021092BA02D092E6
:1018D000BD02D092BC0210928A0210928902D0926C
:1018E0008B021092870610928606E3EDF2E0DF018C
:1018F0002C2D1D922A95E9F7E12CF12C870120E08F
:1019000030E040EA50E4CA01B9010E945901E3EC19
:10191000F2E0DF012C2D1D922A95E9F7E092CF022B
:10192000F092D0020093D1021093D20284B18F635F
:1019300084B985B1807C806385B9809181008F7E78
:1019400080938100809181008860809381008091E4
:1019500080008D7F80938000809180008E7F8093B7
:101960008000809180008F73809380008091800040
:101970008F7C809380001092B0001092B100809113
:10198000700081608093700060E476E080E090E019
:101990000E946410E3E9F6E0DF011D92CA94E9F7C2
:1019A0008CEB91E0A0E0B0E08093930690939406D6
:1019B000A0939506B093960687EC91E0A0E0B0E086
:1019C0008093970690939806A0939906B0939A06F1
:1019D000109288061092890610928A0610928B0641
:1019E000109292061092910610928D0680E28093DA
:1019F0008C06109290060E940D118AB1837F8AB9DD
:101A000087B1807C87B9569A17BC81E884BDD5BC64
:101A100080916E00816080936E00549A579A5C9812
:101A20005F98559A5D987CE0972E1BC09FEB980FAE
:101A30009A3188F19FE9980F9A3148F59091C20246
:101A40009430A9F590E0FC01E456F109E731F10585
:101A500008F4B3C18EE30E9403111092C2020E94E7
:101A600065020E94870490918D069111F8CF87FF3F
:101A7000DDCFE091C202E43008F09BC191E09E0FFF
:101A80009093C202F0E0E254FD4F8083E8CF83E2FE
:101A90000E940311E2CF482F50E0FA01E154F1090E
:101AA000E431F10540F08CE30E940311D6CF8AE3C4
:101AB0000E940311D2CFEC5CFF4F0C945F1A0E947E
:101AC00065028091D3038111FACF80E00E9410104B
:101AD00081E00E941010D301E92D1D92EA95E9F7EB
:101AE000E12CF12C8701A8019701C801B7010E94E0
:101AF0005901109296026091A3027091A402809104
:101B0000A5029091A6026093970270939802809329
:101B1000990290939A022091A7023091A8024091D5
:101B2000A9025091AA0220939B0230939C024093F9
:101B30009D0250939E02E090AB02F090AC020091A7
:101B4000AD021091AE02E0929F02F092A0020093CB
:101B5000A1021093A202A0908D02B0908E02C090BC
:101B60008F02D09090021F921F921F921F921F927D
:101B70001F920E9413050F900F900F900F900F90DF
:101B80000F906BCF81E080938C0267CF10928C0214
:101B900064CFA0908D02B0908E02C0908F02D09042
:101BA0009002E0909F02F090A0020091A10210919B
:101BB000A20220919B0230919C0240919D02509183
:101BC0009E02609197027091980280919902909183
:101BD0009A02E091BB02EF93E0919502EF93E091BE
:101BE0009402EF93E0919302EF93E0919202EF93CE
:101BF000E0919102EF930E9413050F900F900F90C8
:101C00000F900F900F9029CFA0908D02B0908E0270
:101C1000C0908F02D0909002E0909F02F090A002BE
:101C20000091A1021091A20220919B0230919C028E
:101C300040919D0250919E0260919702709198028E
:101C40008091990290919A021F92C6CFA0908D0226
:101C5000B0908E02C0908F02D0909002E0909F02D0
:101C6000F090A0020091A1021091A20220919B028B
:101C700030919C0240919D0250919E02609197028A
:101C8000709198028091990290919A026CCF86E0AF
:101C90000E94DE04E2CE85E00E94DE04DECE84E017
:101CA0000E94DE04DACE83E00E94DE04D6CE82E01B
:101CB0000E94DE04D2CE81E00E94DE04CECE81E01E
:101CC00080939602CACE10929602C7CE9091D3030B
:101CD000992341F089830E9465029091D303898101
:101CE0009111F8CF21E030E0893411F020E030E0AC
:101CF0008901000F111F020F131FC801880F991FC0
:101D0000880F991FFC01E457FD4F7F0160919306F6
:101D10007091940680919506909196060E943318D2
:101D20002CE137EC41EB52E40E948917D70157961A
:101D30006D937D938D939C935A97C801880F991F3B
:101D4000880F991FFC01E057FD4F7F0160919706B6
:101D5000709198068091990690919A060E94331886
:101D600024E731ED45EB52E40E948917D7015796DD
:101D70006D937D938D939C935A97000F111F000FC5
:101D8000111F0C561D4F60919B0670919C0680910F
:101D90009D0690919E060E94331825E535E545E0A5
:101DA00052E40E948917F801678B708F818F928FA0
:101DB00054CE8AE30E94031152CEE85BFF4F0C948D
:101DC0005F1A80918C02813009F4CDC00E94B1006D
:101DD00020919F023091A0024091A1025091A20255
:101DE0000E94011760939F027093A0028093A1024A
:101DF0009093A20232CE80918C02813009F4D2C03D
:101E00000E94B10020919B0230919C0240919D0262
:101E100050919E020E94011760939B0270939C0256
:101E200080939D0290939E0218CE0E94B1000E9462
:101E300002186093BB0211CE80918C02813009F4AC
:101E4000D0C00E94B1002091970230919802409139
:101E5000990250919A020E94011760939702709321
:101E600098028093990290939A02F7CD0E94B10054
:101E700060939102709392028093930290939402E4
:101E8000ECCD0E94B1002091AB023091AC024091A8
:101E9000AD025091AE020E9401176093B702709399
:101EA000B8028093B9029093BA02D7CD0E94B100D4
:101EB0002091A7023091A8024091A9025091AA0254
:101EC0000E9401176093B3027093B4028093B5022D
:101ED0009093B602C2CD0E94B1002091A30230912E
:101EE000A4024091A5025091A6020E94011760939E
:101EF000AF027093B0028093B1029093B202ADCD65
:101F00000E94B1006093AB027093AC028093AD026B
:101F10009093AE02A2CD0E94B1006093A70270938D
:101F2000A8028093A9029093AA0297CD0E94B100C3
:101F30006093A3027093A4028093A5029093A602DB
:101F40008CCD0E94B10060938D0270938E028093BD
:101F50008F029093900281CD0E94B1000E940218DE
:101F6000609395027ACD0E94B1002091960230E0F4
:101F7000F901EE0FFF1FE20FF31FEE0FFF1FEE0F31
:101F8000FF1FEC56FD4F2789308D418D528D0E94E9
:101F9000011760939F027093A0028093A102909317
:101FA000A2025BCD0E94B1002091960230E0F901BF
:101FB000EE0FFF1FE20FF31FEE0FFF1FEE0FFF1FCD
:101FC000E057FD4F2789308D418D528D0E940117BA
:101FD00060939B0270939C0280939D0290939E025B
:101FE0003CCD0E94B1002091960230E0F901EE0F45
:101FF000FF1FE20FF31FEE0FFF1FEE0FFF1FE4574F
:10200000FD4F2789308D418D528D0E9401176093BD
:102010009702709398028093990290939A021DCD33
:10202000FF920F931F93CF93DF93882309F449C046
:1020300020E363E395B1977C922B95B916E0D6E047
:1020400051E041E0CFE301E092E0F92E7AE1ACE427
:10205000B9E096B181119C27442329F090FD13C06B
:10206000D11110C0602751112AC08CE0E3E9F6E0DD
:10207000DF011D928A95E9F7DF91CF911F910F91B2
:10208000FF900895D150552341F092FD16C01111D3
:1020900013C0442351F36F2550E025B1362F37701C
:1020A000232B25B9972F9A95F1F795B1932795B9D9
:1020B000FD013197F1F7CDCF115051E0EECF40E067
:1020C000E4CF28E06BE0B6CFCF92DF92EF92FF92A1
:1020D0006B017C0180E4C81686E0D806E104F104B7
:1020E00008F053C020EC37E249E050E0F0E4CF2E96
:1020F000F6E0DF2EE12CF12CDA01C90136E0B695CD
:10210000A795979587953A95D1F7BC019C01AD01AC
:10211000E6E0220F331F441F551FEA95D1F782E0F6
:10212000909181008F5F987F892B809381007093BD
:102130008900609388002093BF063093C0064093C7
:10214000C1065093C206A701960185E056954795B2
:10215000379527958A95D1F7E0919106F0919206EF
:10216000EF5BFF4F60817181828193810E942D1A04
:10217000AA27BB27F8949093BE068093BD06789457
:10218000FF90EF90DF90CF90089560E070E788E3D4
:1021900099E3A70196010E943D1A2115310581E0BE
:1021A0004807510518F4B90180E0BACF211531056F
:1021B00088E04807510508F09FCFDA01C90123E004
:1021C000B695A795979587952A95D1F7BC019C015F
:1021D000AD01E3E0220F331F441F551FEA95D1F7ED
:1021E00081E09ECF1F920F920FB60F9211248F9312
:1021F00085B1887F85B91092B1008F910F900FBE85
:102200000F901F90189590918D06911105C08093A5
:102210008C0681E080938D0608951092D30310926E
:10222000920610929106EFE6F0E080818D7F808328
:10223000F8941092A7068091A5069091A606909317
:10224000A4068093A3067894F8941092BE06109288
:10225000BD06789408951F920F920FB60F92112425
:10226000CF92DF92EF92FF920F931F932F933F93A2
:102270004F935F936F937F938F939F93AF93BF938E
:10228000CF93DF93EF93FF938091900681112DC040
:1022900081E08093900690918D0691113CC0309919
:1022A0002EC090918D06911105C094E290938C06FA
:1022B00080938D0610929006FF91EF91DF91CF9160
:1022C000BF91AF919F918F917F916F915F914F914E
:1022D0003F912F911F910F91FF90EF90DF90CF9042
:1022E0000F900FBE0F901F90189580918E069091C1
:1022F0008F06019690938F0680938E06DDCF3199DD
:1023000013C090918D069111D5CF95E290938C06D4
:1023100080938D06CFCF0E940D11109287061092E8
:10232000860610929006C8CF32990AC090918D0609
:102330009111C0CF96E290938C0680938D06BACF10
:10234000339B0CC0349914C090918D069111B2CF7B
:102350009BE290938C0680938D06ACCF90918D0676
:102360009111A8CF9AE290938C0680938D06A2CF0C
:1023700035990AC090918D0691119CCF9DE2909362
:102380008C0680938D0696CF85B19091BC0698738C
:10239000877C892B85B985B1982F987F8091BC0661
:1023A000892B85B98AEF8093B20082E08093B100D7
:1023B0007894C0919106D0919206209709F487C134
:1023C000E8818E2F90E08730910508F073CFFC01F3
:1023D000E15AFF4F0C945F1A5D9A10929206109288
:1023E00091060E94170B66CF5F981092920610928A
:1023F00091060E94170B5ECF5F9A10929206109280
:1024000091060E94170B56CF5C981092920610927C
:1024100091060E94170B4ECF5C9A10929206109272
:1024200091060E94170B46CF4D854093BC06009144
:10243000B4061091B5062091B6063091B706898191
:102440009A81AB81BC81800F911FA21FB31F809323
:10245000B4069093B506A093B606B093B7061816C7
:1024600019061A061B060CF05AC241604093BC06BE
:102470000E851F8528893989801B910BA20BB30B10
:102480008093B4069093B506A093B606B093B706B2
:102490008091930690919406A0919506B09196062E
:1024A00043FF99C10197A109B109809393069093C5
:1024B0009406A0939506B09396064091B00650916D
:1024C000B1066091B2067091B3068D819E81AF8195
:1024D000B885480F591F6A1F7B1F4093B006509361
:1024E000B1066093B2067093B3068091BC061416D1
:1024F0001506160617062CF582608093BC06401B55
:10250000510B620B730B4093B0065093B10660936E
:10251000B2067093B3064091970650919806609169
:10252000990670919A0684FFEDC1415051096109E5
:10253000710940939706509398066093990670939B
:102540009A06C090AC06D090AD06E090AE06F09032
:10255000AF0649855A856B857C854C0D5D1D6E1DCA
:102560007F1D4093AC065093AD066093AE0670930A
:10257000AF0614161506160617061CF58460401BD8
:10258000510B620B730B4093AC065093AD066093F6
:10259000AE067093AF0640919B0650919C066091E9
:1025A0009D0670919E0685FF22C141505109610927
:1025B000710940939B0650939C0660939D0670930F
:1025C0009E064091A8065091A9066091AA067091B6
:1025D000AB064F5F5F4F6F4F7F4F4093A8065093FE
:1025E000A9066093AA067093AB0690E389278093AF
:1025F000BC06401751076207730708F061C08FA936
:1026000098ADA9ADBAAD481759076A077B0708F01E
:10261000FBC04091BF065091C0066091C106709109
:10262000C2068091880690918906A0918A06B09191
:102630008B06840F951FA61FB71F813828E39207CA
:1026400021E0A207B10508F454C180589843A14085
:10265000B1098093880690938906A0938A06B09367
:102660008B060BA91CA92DA93EA96091B8067091F3
:10267000B9068091BA069091BB06600F711F821F48
:10268000931F6093B8067093B9068093BA0690932F
:10269000BB060A891B892C893D890617170728075D
:1026A000390750F40093B8061093B9062093BA0680
:1026B0003093BB06C901B8010E946410FBCD5D9840
:1026C00010929206109291060E94170BF3CD9091F2
:1026D000870680918606981709F45CC1C09186062A
:1026E00025E4C29FE0011124CC52DC4FD093920626
:1026F000C0939106209709F44DC18881811160CE65
:102700006BA57CA58DA59EA56093B8067093B906B0
:102710008093BA069093BB0600E41CE920E030E009
:10272000009388061093890620938A0630938B06BF
:102730000E9464108E859F85A889B989B595A79553
:1027400097958795B095A095909581959F4FAF4FA0
:10275000BF4F8093B4069093B506A093B606B0938E
:10276000B7068093B0069093B106A093B206B093DB
:10277000B3068093AC069093AD06A093AE06B093DB
:10278000AF061092A8061092A9061092AA061092FF
:10279000AB06FE01FF960190F081E02D309709F421
:1027A000E7C08191F894F093A406E093A306E80FA4
:1027B000F11DF093A606E093A5068FEF9FEF90938F
:1027C000A2068093A1061092A7067894C091910664
:1027D000D0919206F5CD0196A11DB11D809393066F
:1027E00090939406A0939506B093960666CE4F5F9D
:1027F0005F4F6F4F7F4F40939B0650939C066093B3
:102800009D0670939E06DDCE8BAD9CADADADBEAD8D
:10281000481759076A077B0709F467C04817590723
:102820006A077B0708F480C04091BF065091C0063C
:102830006091C1067091C2068091880690918906C8
:10284000A0918A06B0918B06840F951FA61FB71F13
:102850008093880690938906A0938A06B0938B068E
:10286000813828E3920721E0A207B10508F422CDC0
:1028700080589843A140B1098093880690938906B7
:10288000A0938A06B0938B064BA95CA96DA97EA97B
:102890008091B8069091B906A091BA06B091BB0696
:1028A000481759076A077B0708F059C0841B950B26
:1028B000A60BB70B8093B8069093B906A093BA06FF
:1028C000B093BB060FA518A929A93AA96091B8062B
:1028D0007091B9068091BA069091BB066017710796
:1028E0008207930708F0E8CEDDCE80E49CE9A0E003
:1028F000B0E08093880690938906A0938A06B093EF
:102900008B06D8CC4F5F5F4F6F4F7F4F409397063A
:10291000509398066093990670939A0612CE0E858E
:102920001F8528893989C9CD6A897B898C899D89C8
:102930000091B8061091B9062091BA063091BB06F5
:10294000601771078207930709F4B4CC6093B80647
:102950007093B9068093BA069093BB06ADCE1092E1
:10296000B8061092B9061092BA061092BB06AACF0A
:1029700088A5F8948093A7068091A5069091A60655
:102980009093A4068093A3067894C0919106D09169
:10299000920616CD0E940D11109290068DCC80915A
:1029A000D30381110BC081E08093D30380E3809334
:1029B000BC0680916F00826080936F0008951F9223
:1029C0000F920FB60F9211242F933F938F939F93E3
:1029D000EF93FF938091BD069091BE062091A106D2
:1029E0003091A206820F931F9093A2068093A106B6
:1029F0002091A1063091A2068091BD069091BE065D
:102A00002817390748F5E091A306F091A4068091B4
:102A1000A5069091A606E817F90709F442C0CF0170
:102A200001969093A4068093A30690819093A006AC
:102A3000933048F51092A00680919F0681111CC02A
:102A400017BCFF91EF919F918F913F912F910F9024
:102A50000FBE0F901F90189580919F069091A00631
:102A600081110BC0992361F38FEF87BD8091A00680
:102A700081508093A006E5CF90E0815080939F061F
:102A80009923F1F2F1CF80919F06882341F01092B3
:102A9000A0061092BE061092BD0690E0EECF87E031
:102AA000EDCF9091A7069093A006C2CF6F927F9230
:102AB0008F929F92AF92BF92CF92DF92EF92FF924E
:102AC0000F931F93CF93DF938C01EB017A01FC01ED
:102AD000828C938CA48CB58C68807980CA80DB80D2
:102AE0009301A601C501B4010E94841787FF38C075
:102AF000A5019401C501B4010E9473194B015C0149
:102B000020E03AEB4BE55AECF80162A173A184A1F5
:102B100095A10E9473199B01AC01C501B4010E94EB
:102B200000170E94E6195B018C019B01AC01B30107
:102B3000C6010E94841787FF02C0530186019501D8
:102B4000A801B301C6010E948417882349F0C5017A
:102B5000D80188839983AA83BB8381E0F7018083AE
:102B6000DF91CF911F910F91FF90EF90DF90CF9069
:102B7000BF90AF909F908F907F906F9008952F920D
:102B80003F924F925F926F927F928F929F92AF92FD
:102B9000BF92CF92DF92EF92FF920F931F93CF934A
:102BA000DF93CDB7DEB760970FB6F894DEBF0FBEE8
:102BB000CDBF1C012A013B0148015901FC0162897A
:102BC0007389848995890E9431186B017C01A30166
:102BD00092010E9473190E946D170E9402182B0126
:102BE0003C01F10163A774A785A796A7A5019401ED
:102BF000C701B6010E9473190E946D170E94021846
:102C00004B015C01F10167A770AB81AB92AB23A9CB
:102C100034A945A956A9A0EEBEE20E94651A6983AF
:102C20007A838B839C830E9433186D837E838F838A
:102C30009887C301B2010E9431182B013C01A70102
:102C40009601C701B6010E9473196B017C01A301B3
:102C50009201C301B2010E94731969877A878B8739
:102C60009C872D813E814F815885CA01B9010E9400
:102C700001176D877E878F87988B29853A854B85CD
:102C80005C85C701B6010E9400172D853E854F85E2
:102C900058890E9489170E946D170E94FB172B010B
:102CA0003C01C501B4010E9431189B01AC010E9496
:102CB00073194B015C01A70196010E9400176B017B
:102CC0007C0169817A818B819C819095809570953A
:102CD00061957F4F8F4F9F4F0E9433189B01AC012E
:102CE0000E9401179B01AC01C701B6010E94891720
:102CF0000E946E18F101C684D784E088F188A7018C
:102D00009601241935094609570929833A834B83CB
:102D10005C830E94FB1729813A814B815C81261BD1
:102D2000370B480B590BDA01C90157FD26C0F101D9
:102D300047AA50AE61AE72AE840D951DA61DB71D9B
:102D400083AF94AFA5AFB6AF60960FB6F894DEBF71
:102D50000FBECDBFDF91CF911F910F91FF90EF90EC
:102D6000DF90CF90BF90AF909F908F907F906F90AB
:102D70005F904F903F902F900895C701B6010E9439
:102D800033182D853E854F8558890E9473192985F2
:102D90003A854B855C850E9400179B01AC01C501FB
:102DA000B4010E9401174B015C0120E030E040E8D3
:102DB00050E46D817E818F8198850E9473199B01FB
:102DC000AC01C501B4010E9489170E946D170E94D1
:102DD000FB1797FD11C02B013C01C616D706E8066C
:102DE000F90624F080E090E0DC01A1CF2601370154
:102DF00080E090E0DC019BCF60E070E0CB01EBCFA6
:102E00005058BB27AA270E9418170C94E9180E9453
:102E1000DB1838F00E94E21820F039F49F3F19F4D3
:102E200026F40C94D8180EF4E095E7FB0C94A9183E
:102E3000E92F0E94FA1858F3BA176207730784073C
:102E4000950720F079F4A6F50C9434190EF4E0956A
:102E50000B2EBA2FA02D0B01B90190010C01CA0154
:102E6000A0011124FF27591B99F0593F50F4503EFF
:102E700068F11A16F040A22F232F342F4427585FF1
:102E8000F3CF469537952795A795F0405395C9F709
:102E90007EF41F16BA0B620B730B840BBAF09150C1
:102EA000A1F0FF0FBB1F661F771F881FC2F70EC060
:102EB000BA0F621F731F841F48F487957795679533
:102EC000B795F7959E3F08F0B0CF9395880F08F01F
:102ED0009927EE0F9795879508950E941C1990F0F9
:102EE0009F3748F4911116F40C94351960E070E0A6
:102EF00080E89FE3089526F01B16611D711D811D5A
:102F00000C94AF180C94CA180E94851808F481E03C
:102F100008950E949D170C94E9180E94E21858F039
:102F20000E94DB1840F029F45F3F29F00C94A918A7
:102F300051110C9435190C94D8180E94FA1868F3A2
:102F40009923B1F3552391F3951B550BBB27AA2762
:102F500062177307840738F09F5F5F4F220F331F9C
:102F6000441FAA1FA9F335D00E2E3AF0E0E832D064
:102F700091505040E695001CCAF72BD0FE2F29D067
:102F8000660F771F881FBB1F261737074807AB0739
:102F9000B0E809F0BB0B802DBF01FF2793585F4FAE
:102FA0003AF09E3F510578F00C94A9180C9435190D
:102FB0005F3FE4F3983ED4F3869577956795B79590
:102FC000F7959F5FC9F7880F911D9695879597F99B
:102FD0000895E1E0660F771F881FBB1F6217730714
:102FE0008407BA0720F0621B730B840BBA0BEE1F29
:102FF00088F7E09508950E9402186894B1110C9426
:10300000351908950E94021988F09F5798F0B92F3A
:103010009927B751B0F0E1F0660F771F881F991F0D
:103020001AF0BA95C9F714C0B13091F00E94341962
:10303000B1E008950C943419672F782F8827B85F72
:1030400039F0B93FCCF3869577956795B395D9F765
:103050003EF490958095709561957F4F8F4F9F4F6F
:103060000895E89409C097FB3EF49095809570957B
:1030700061957F4F8F4F9F4F9923A9F0F92F96E9C4
:10308000BB279395F695879577956795B795F11139
:10309000F8CFFAF4BB0F11F460FF1BC06F5F7F4FD6
:1030A0008F4F9F4F16C0882311F096E911C07723E8
:1030B00021F09EE8872F762F05C0662371F096E8F1
:1030C000862F70E060E02AF09A95660F771F881FC0
:1030D000DAF7880F9695879597F908950E941C193D
:1030E00090F09F3748F4911116F00C94351960E078
:1030F00070E080E89FEB089526F41B16611D711D9A
:10310000811D0C94AF180C94CA18990F0008550F24
:10311000AA0BE0E8FEEF16161706E807F907C0F05D
:1031200012161306E407F50798F0621B730B840B65
:10313000950B39F40A2661F0232B242B252B21F43F
:1031400008950A2609F4A140A6958FEF811D811DDF
:10315000089597F99F6780E870E060E008958823FC
:1031600071F4772321F09850872B762F07C06623C0
:1031700011F499270DC09051862B70E060E02AF081
:103180009A95660F771F881FDAF7880F96958795AF
:1031900097F908959F3F31F0915020F487957795E6
:1031A0006795B795880F911D9695879597F908951E
:1031B0009FEF80EC089500240A941616170618064F
:1031C0000906089500240A9412161306140605062B
:1031D0000895092E0394000C11F4882352F0BB0FBC
:1031E00040F4BF2B11F460FF04C06F5F7F4F8F4F1F
:1031F0009F4F089557FD9058440F551F59F05F3F5A
:1032000071F04795880F97FB991F61F09F3F79F008
:1032100087950895121613061406551FF2CF46958A
:10322000F1DF08C0161617061806991FF1CF86950C
:1032300071056105089408950E940219A0F0BEE787
:10324000B91788F4BB279F3860F41616B11D672F95
:10325000782F8827985FF7CF869577956795B11D6A
:1032600093959639C8F30895E894BB276627772786
:10327000CB0197F908950E94851808F48FEF0895FF
:103280000E94021958F19E5760F19851A0F0E9F0A0
:10329000983020F5092E9927660F771F881F991FF0
:1032A0000A94D1F712C0062E672F782F8827985FCF
:1032B00011F4000C07C0993FB4F386957795679594
:1032C0009395D9F7611D711D811D3EF490958095F0
:1032D000709561957F4F8F4F9F4F089568940C9420
:1032E00035190C9434190E9486190C94E9180E941F
:1032F000DB1838F00E94E21820F0952311F00C94AE
:10330000A9180C94D81811240C9435190E94FA1895
:1033100070F3959FC1F3950F50E0551F629FF00128
:10332000729FBB27F00DB11D639FAA27F00DB11D41
:10333000AA1F649F6627B00DA11D661F829F2227CA
:10334000B00DA11D621F739FB00DA11D621F839F51
:10335000A00D611D221F749F3327A00D611D231F27
:10336000849F600D211D822F762F6A2F11249F5775
:1033700050409AF0F1F088234AF0EE0FFF1FBB1F78
:10338000661F771F881F91505040A9F79E3F510537
:1033900080F00C94A9180C9435195F3FE4F3983E23
:1033A000D4F3869577956795B795F795E7959F5FE1
:1033B000C1F7FE2B880F911D9695879597F9089573
:1033C00019F416F40C94D8180C94CA180E94021917
:1033D000B8F39923C9F3B6F39F57550B87FF0E94A3
:1033E000261A0024A0E640EA900180585695979549
:1033F00028F4805C660F771F881F20F02617370798
:10340000480730F4621B730B840B202931294A2BA7
:10341000A69517940794202531254A2758F7660F5B
:10342000771F881F20F026173707480730F4620BF4
:10343000730B840B200D311D411DA09581F7B9013F
:10344000842F9158880F96958795089591505040F4
:10345000660F771F881FD2F70895DB018F939F9324
:103460000E94651ABF91AF91A29F800D911DA39FED
:10347000900DB29F900D11240895A1E21A2EAA1B5F
:10348000BB1BFD010DC0AA1FBB1FEE1FFF1FA21714
:10349000B307E407F50720F0A21BB30BE40BF50B11
:1034A000661F771F881F991F1A9469F7609570959A
:1034B000809590959B01AC01BD01CF010895EE0F61
:1034C000FF1F0590F491E02D09940E94701AA59FAA
:1034D000900DB49F900DA49F800D911D112408950F
:1034E000A29FB001B39FC001A39F700D811D112445
:1034F000911DB29F700D811D1124911D0895F894A6
:02350000FFCFFB
:0235020001FEC8
:00000001FF
