:100000000C9463000C9480000C9480000C9480008D
:100010000C9480000C9480000C9480000C94800060
:100020000C9480000C946E110C9480000C94D10DF3
:100030000C9480000C9480000C9480000C94800040
:100040000C947F110C9480000C94F5110C94741294
:100050000C9480000C9480000C9480000C94800020
:100060000C9480000C948000B00EA80EA00E980E88
:10007000900E880E00100514A51405142B149E1460
:100080009A143914FB14FB14F814F414F014EC143F
:10009000E814E414E014A1144D16021442160214DC
:1000A00037162C1621160C16F715E2150214021439
:1000B000D0150214DB1502140214021402140214E7
:1000C000B2159415761511241FBECFEFD8E0DEBF10
:1000D000CDBF11E0A0E0B1E0E2E0F4E302C00590A2
:1000E0000D92A230B107D9F726E0A2E0B1E001C03D
:1000F0001D92A33CB207E1F70E94AB120C94FF19CA
:100100000C9400008091170281110BC081E0809354
:10011000170280E38093A00680916F008260809335
:100120006F00089562E071E0B5E4A0918706CB010D
:100130002A2F332727FD30954091880650E0241759
:10014000350789F0B29FF001B39FF00D1124EC5EEA
:10015000FB4F208131816217730731F0AF5FAA3006
:1001600039F7A0E0E5CF0895635C7F4F81E0663FFB
:100170007807D9F680E090E0089520914D022F5F36
:10018000203891F09091CF022917E1F3E0914D02D0
:10019000F0E0E25BFD4F808320934D028091C1002F
:1001A00080628093C100089520E0ECCF6F927F922F
:1001B0008F929F92AF92BF92CF92DF92EF92FF9277
:1001C0000F931F93CF93DF938C01EB017A01FC0116
:1001D000828C938CA48CB58C68807980CA80DB80FB
:1001E0009301A601C501B4010E947D1787FF38C0A5
:1001F000A5019401C501B4010E9453194B015C0192
:1002000020E03AEB4BE55AECF80162A173A184A11E
:1002100095A10E9453199B01AC01C501B4010E9434
:1002200005170E94BA195B018C019B01AC01B30157
:10023000C6010E947D1787FF02C053018601950108
:10024000A801B301C6010E947D17882349F0C501AA
:10025000D80188839983AA83BB8381E0F7018083D7
:10026000DF91CF911F910F91FF90EF90DF90CF9092
:10027000BF90AF909F908F907F906F9008952F9236
:100280003F924F925F926F927F928F929F92AF9226
:10029000BF92CF92DF92EF92FF920F931F93CF9373
:1002A000DF93CDB7DEB760970FB6F894DEBF0FBE11
:1002B000CDBF1C012A013B0148015901FC016289A3
:1002C0007389848995890E941A186B017C01A301A6
:1002D00092010E9453190E946A170E94EE172B0187
:1002E0003C01F10163A774A785A796A7A501940116
:1002F000C701B6010E9453190E946A170E94EE17A7
:100300004B015C01F10167A770AB81AB92AB23A9F4
:1003100034A945A956A9A0EEBEE20E94EB16698356
:100320007A838B839C830E941C186D837E838F83CA
:100330009887C301B2010E941A182B013C01A70142
:100340009601C701B6010E9453196B017C01A301FC
:100350009201C301B2010E94531969877A878B8782
:100360009C872D813E814F815885CA01B9010E9429
:1003700006176D877E878F87988B29853A854B85F1
:100380005C85C701B6010E9405172D853E854F8506
:1003900058890E9481170E946A170E94E9172B0151
:1003A0003C01C501B4010E941A189B01AC010E94D6
:1003B00053194B015C01A70196010E9405176B01BF
:1003C0007C0169817A818B819C8190958095709563
:1003D00061957F4F8F4F9F4F0E941C189B01AC016E
:1003E0000E9406179B01AC01C701B6010E9481174C
:1003F0000E945718F101C684D784E088F188A701CC
:100400009601241935094609570929833A834B83F4
:100410005C830E94E91729813A814B815C81261B0C
:10042000370B480B590BDA01C90157FD26C0F10102
:1004300047AA50AE61AE72AE480E591E6A1E7B1EB0
:1004400043AE54AE65AE76AE60960FB6F894DEBF9E
:100450000FBECDBFDF91CF911F910F91FF90EF9015
:10046000DF90CF90BF90AF909F908F907F906F90D4
:100470005F904F903F902F900895C701B6010E9462
:100480001C182D853E854F8558890E945319298552
:100490003A854B855C850E9405179B01AC01C5011F
:1004A000B4010E9406174B015C0120E030E040E8F7
:1004B00050E46D817E818F8198850E9453199B0144
:1004C000AC01C501B4010E9481170E946A170E9405
:1004D000E91797FD11C02B013C01C616D706E806A7
:1004E000F90624F080E090E0DC01A1CF260137017D
:1004F00080E090E0DC019BCF60E070E0CB01EBCFCF
:100500000F931F93CF93C82FCB01BA0120E030E0A7
:100510004AE754E40E9453190E942319985F462F1A
:10052000406830914D023F5F303809F49AC0209105
:10053000CF022317E1F3E0914D02F0E0E25BFD4FC3
:10054000408330934D022091C10020622093C1006E
:100550008B019C0100781F732227332757E03695C3
:100560002795179507955A95D1F7005830914D0268
:100570003F5F303809F47DC02091CF022317E1F3AB
:10058000E0914D02F0E0E25BFD4F008330934D02BD
:100590002091C10020622093C1008B019C010027A3
:1005A000107C2F7133274EE03695279517950795C8
:1005B0004A95D1F7005830914D023F5F303809F429
:1005C00056C02091CF022317E1F3E0914D02F0E0F5
:1005D000E25BFD4F008330934D022091C100206209
:1005E0002093C100DC01CB0188279927A07EBF7032
:1005F00025E1B695A795979587952A95D1F760E857
:10060000680F90914D029F5F903879F18091CF02F1
:100610008917E1F3E0914D02F0E0E25BFD4F60836A
:1006200090934D028091C10080628093C1009091AF
:100630004D029F5F9038B9F08091CF028917E1F3A6
:10064000E0914D02F0E0E25BFD4FC08390934D02DC
:100650008091C10080628093C100CF911F910F9162
:10066000089530E064CF90E0E7CF90E0CFCF30E066
:10067000A8CF30E081CF1092170210929F061092FF
:100680009E06EFE6F0E080818D7F8083F8941092E3
:100690008D0680918B0690918C0690938A068093AC
:1006A00089067894F8941092D4031092D303789426
:1006B00008950F931F93CF93DF93811145C028E0D6
:1006C0005BE095B1977C922B95B9D6E0C6E071E0DE
:1006D00061E0BFE301E012E0AAE12CE439E096B169
:1006E00081119B27662331F090FD04C0C1111CC00D
:1006F000502760E0711112C06623D1F070E095B10F
:10070000452F4770942B95B99A2F9A95F1F795B18B
:10071000942795B9F9013197F1F7E1CF92FDEFCF29
:10072000D11104C05127E8CFC150E4CFD150E7CF59
:100730008CE0E2E9F6E0DF011D928A95E9F7DF91AE
:10074000CF911F910F91089520E353E3BACF909179
:10075000A206911105C08093A10681E08093A206B4
:100760000895CF92DF92EF92FF926B017C0180E4BB
:10077000C81686E0D806E104F10408F053C020EC66
:1007800037E249E050E0B0E4CB2EB6E0DB2EE12CBE
:10079000F12CBA01A901F6E0769567955795479532
:1007A000FA95D1F7CA019A01AB01A6E0220F331FD7
:1007B000441F551FAA95D1F762E0709181006F5FC9
:1007C000787F672B609381009093890080938800E5
:1007D00020938E0630938F06409390065093910697
:1007E000A701960165E056954795379527956A9537
:1007F000D1F7E0919E06F0919F06EF5BFF4F60817D
:100800007181828193810E94B316AA27BB27F89435
:100810009093D4038093D3037894FF90EF90DF906C
:10082000CF90089560E070E788E399E3A70196010F
:100830000E94C3162115310581E04807510518F4BF
:10084000C90160E0BACF2115310588E0480751059C
:1008500008F09FCFBA01A90183E076956795579577
:1008600047958A95D1F7CA019A01AB0163E0220F3F
:10087000331F441F551F6A95D1F761E09ECF8F92B9
:100880009F92AF92BF92CF92DF92EF92FF920F931F
:100890001F9349015A01670178012CE137EC41EBC4
:1008A00052E40E9453190E94231960930B02709323
:1008B0000C0280930D0290930E0224E731ED45EB7C
:1008C00052E4C501B4010E9453190E942319609398
:1008D0000F0270931002809311029093120225E58B
:1008E00035E545E052E4C701B6010E9453190E9464
:1008F000231960931302709314028093150290934E
:1009000016021092FB011092FC011092FD01109250
:10091000FE018CE0EFEFF1E0DF011D928A95E9F72F
:100920001F910F91FF90EF90DF90CF90BF90AF900D
:100930009F908F9008958F929F92AF92BF92CF9287
:10094000DF92EF92FF920F931F93CF938091A206B5
:10095000811123C18091D002811105C08091D10203
:10096000882309F407C11092D002909188068091E3
:100970008706981709F472C14A9B6CC14B9B5FC1F3
:10098000C091A106C03209F462C18C2F0E94BD0043
:10099000309BFCC0319906C0C53209F4F1C185E233
:1009A0000E94BD00329906C0C63209F4E6C186E253
:1009B0000E94BD00339906C0CA3209F4D5C18AE24B
:1009C0000E94BD00349906C0CB3209F4D0C18BE23D
:1009D0000E94BD00359905C0CD3219F08DE20E940C
:1009E000BD00C091220260919206709193068091A1
:1009F0009406909195060E941C182CE137EC41EB6F
:100A000052E40E9481172C2F30E0F901EE0FFF1FF6
:100A1000E20FF31FEE0FFF1FEE0FFF1FE85EFD4F0B
:100A20002789308D418D528D0E940517AB01BC0185
:100A300088E70E948002C091220260919606709120
:100A4000970680919806909199060E941C1824E7B9
:100A500031ED45EB52E40E9481172C2F30E0F90173
:100A6000EE0FFF1FE20FF31FEE0FFF1FEE0FFF1F32
:100A7000E45EFD4F2789308D418D528D0E94051710
:100A8000AB01BC0189E70E948002C0912202609103
:100A90009A0670919B0680919C0690919D060E94FB
:100AA0001C1825E535E545E052E40E9481172C2FFE
:100AB00030E0F901EE0FFF1FE20FF31FEE0FFF1FF3
:100AC000EE0FFF1FE05EFD4F2789308D418D528D67
:100AD0000E940517AB01BC018AE70E948002809149
:100AE000F801882309F49AC08091C306853C09F077
:100AF00037C183EC96E028E08F3F920711F008F0B1
:100B00002FC160E070E0FC0105C088E0EF3FF8070E
:100B100009F030F431966F5F7F4F8081853CA9F3F7
:100B200080E090E00E941A18AB01BC0185E70E94AA
:100B30008002F8946091A3067091A406789480E0F6
:100B400090E00E941A18AB01BC0184E70E94800269
:100B50008091D102811193C089E0CF911F910F91B3
:100B6000FF90EF90DF90CF90BF90AF909F908F90CD
:100B70000C94BD00CF911F910F91FF90EF90DF90EB
:100B8000CF90BF90AF909F908F900895C43209F49A
:100B9000F1C084E20E94BD00FDCE10928806109242
:100BA000870660919A0670919B0680919C069091B1
:100BB0009D060E941C1825E535E545E052E40E949B
:100BC00081176B017C016091960670919706809168
:100BD0009806909199060E941C1824E731ED45EB88
:100BE00052E40E9481174B015C0160919206709162
:100BF000930680919406909195060E941C182CE112
:100C000037EC41EB52E40E94811787017601A50180
:100C100094010E943F0410924C029CCE6091F90115
:100C20007091FA0180E090E00E941A18AB01BC01BB
:100C300087E70E94800281E08093F80155CF83E42A
:100C40000E94BD00C091A106C03209F09ECE309B2B
:100C5000A0CFA0CE82E40E94BD0090CE9091D1039F
:100C60008091D203981388CE81E40E94BD0083B79F
:100C7000816083BF889583B78E7F83BF7DCE1092BE
:100C8000D10240E050E86BEB74E486E70E948002FA
:100C900020912F0230913002409131025091320266
:100CA00060913B0270913C0280913D0290913E0226
:100CB0000E940517AB01BC0181E60E9480022091D1
:100CC00033023091340240913502509136026091E6
:100CD0003F027091400280914102909142020E9435
:100CE0000517AB01BC0182E60E9480022091370209
:100CF000309138024091390250913A02609143029A
:100D00007091440280914502909146020E9405171D
:100D1000AB01BC0183E60E94800240911902509110
:100D20001A0260911B0270911C0287E60E948002E9
:100D300040911D0250911E0260911F02709120028D
:100D400088E60E9480026091210270E080E090E0DD
:100D50000E941A18AB01BC0189E60E948002FCCEF9
:100D600040E050E0BA01E2CE349B31CE33CE359B29
:100D700035CE37CE319B13CE15CE339B20CE22CE2F
:100D8000329B15CE17CE0F931F93CF93DF93182F5F
:100D9000909188069F5F9A3039F1C92FDD27C7FDF2
:100DA000D095092F2091870630E0C217D30741F470
:100DB0000E949B042091870630E02C173D07C1F369
:100DC000E091880685E4E89FF0011124EB52FC4F86
:100DD0001083FF961182108200938806DF91CF91D5
:100DE0001F910F910C94820000E0C0E0D0E0DACFB8
:100DF000CF931092F7019091D1038091D203981371
:100E000024C080E0C1E00AC00E949B049091D103FD
:100E10008091D203981319C08091F7018111F4CF0A
:100E20008091F9019091FA0101969093FA018093D3
:100E3000F9011092F801C093F7010E949B04909170
:100E4000D1038091D203981739F3F894E091D1033C
:100E5000F0E0EE52FD4F80819091D1039F5F90931F
:100E6000D1039F3FC9F0909100019F5F90930001D3
:100E70009091F6019F5F9093F601903151F491E0CB
:100E80009093CE029091C10090629093C100109215
:100E9000F6017894CF9108951092D103E4CF2F9268
:100EA0003F924F925F926F927F928F929F92AF92FA
:100EB000BF92CF92DF92EF92FF920F931F93CF9347
:100EC000DF93CDB7DEB7E0970FB6F894DEBF0FBE65
:100ED000CDBF29013A01E982FA820B831C8329964E
:100EE000ECACFDAC0EAD1FAD2997ED82FE820F83F9
:100EF00018872A960FAD2A972B961FAD2B972CE1BA
:100F000037EC41EB52E40E9453190E9423196D8B78
:100F10007E8B8F8B988F24E731ED45EB52E4C30134
:100F2000B2010E9453190E942319698F7A8F8B8F07
:100F30009C8F25E535E545E052E469817A818B8116
:100F40009C810E9453190E9423196D8F7E8F8F8F71
:100F500098A3F09088062F2D2F5F29832A3009F45B
:100F6000F0C4822F992787FD909560908706712C99
:100F70006816790641F40E949B048091870690E0F0
:100F800086159705C1F32090880635E4239E10014D
:100F90001124A1014B525C4F1A01DA011C9211116C
:100FA00082C4FA01FF9611821082D10198960C93A7
:100FB00020E030E040E857E46D817E818F819885A4
:100FC0000E94531925E831EB45E058E30E9453197C
:100FD0000E94EE17698B7A8B8B8B9C8BF10177A328
:100FE00066A3158680910B0290910C02A0910D02D0
:100FF000B0910E026D887E888F88988C681679066D
:101000008A069B0614F428E0258700910F021091B0
:1010100010022091110230911202698C7A8C8B8C13
:101020009C8C601671068206930624F4F1014585B6
:101030004061458760901302709014028090150201
:101040009090160269867A868B869C864D8D5E8D81
:101050006F8D78A146155705680579050CF423C3F3
:101060006D887E888F88988C681A790A8A0A9B0A0C
:10107000C401B3016D827E828F82988697FCC3C4BF
:101080006D807E808F809884D10111966D927D92C3
:101090008D929C921497498C5A8C6B8C7C8C401A44
:1010A000510A620A730A49A25AA26BA27CA277FC77
:1010B000B6C409A11AA12BA13CA1D10115960D938B
:1010C0001D932D933C931897ED8CFE8C0F8D18A1DA
:1010D00029853A854B855C85E21AF30A040B150BCA
:1010E000E986FA860B871C87ED86FE860F87188BAC
:1010F00017FDA1C4ED84FE840F851889D1011996CE
:10110000ED92FD920D931C931C97E9A0FAA00BA100
:101110001CA12D813E814F815885E216F3060407FC
:10112000150708F4BBC2E9A0FAA00BA11CA1ED822F
:10113000FE820F8318872D853E854F855889E216DC
:10114000F3060407150708F4A4C2ED80FE800F81A2
:101150001885D1011E96ED92FD920D931C93519727
:10116000E114F1040105110509F4A2C20E941C1842
:101170002CE137EC41EB52E40E94811769A37AA37A
:101180008BA39CA3C301B2010E941C1824E731ED7C
:1011900045EB52E40E94811769A77AA78BA79CA709
:1011A00069857A858B859C850E941C1825E535E527
:1011B00045E052E40E9481176DA77EA78FA798ABE8
:1011C00029A13AA14BA15CA1CA01B9010E945319FE
:1011D0002B013C0129A53AA54BA55CA5CA01B90183
:1011E0000E9453199B01AC01C301B2010E94061772
:1011F0002B013C012DA53EA54FA558A9CA01B90157
:101200000E9453199B01AC01C301B2010E94061751
:101210000E94BA196D877E878F87988BF10162A330
:1012200073A384A395A39B01AC0160E070E080E808
:101230009FE30E94811769877A878B879C879B0130
:10124000AC01C601B5010E9453192B013C019B0161
:10125000AC016D857E858F8598890E9453196DA399
:101260007EA38FA398A7CB01AFA1B8A5F101868B70
:10127000978BA08FB18FC801B7010E941C186B011A
:101280007C01A30192010E9453190E946A170E94D7
:10129000EE172B013C01D10152966D937D938D93F6
:1012A0009C93559781010F5B1F4FE989FA89BF0114
:1012B00080E090E00E941A184B015C01C301B2016A
:1012C0000E941A189B01AC01C501B4010E9481174C
:1012D00020E030E040E05AE40E9453190E94EE17EB
:1012E000D8016D937D938D939C931397A7019601DD
:1012F00069857A858B859C850E94531920E03AEB9D
:101300004BED59E40E94531920E030E84BE356E4DA
:101310000E9481170E946A170E94E917F10163ABCE
:1013200074AB85AB96AB29853A854B855C8569A105
:101330007AA18BA19CA10E945319698B7A8B8B8B0C
:101340009C8B29853A854B855C8569A57AA58BA5FB
:101350009CA50E94531969A37AA38BA39CA32985FA
:101360003A854B855C856DA57EA58FA598A90E94C1
:1013700053192B013C01909188068091870698179C
:1013800009F459C08090FB018D829090FC019986F0
:101390000091FD011091FE0120E030E0A901B401AF
:1013A000C8010E941F1918160CF045C08091FF015A
:1013B00090910002A0910102B09102029C01AD0146
:1013C000505869897A898B899C890E9453196B01CD
:1013D0007C0120910302309104024091050250915A
:1013E000060269A17AA18BA19CA10E9453199B01BD
:1013F000AC01C701B6010E9405176B017C01209169
:101400000702309108024091090250910A02C3017B
:10141000B2010E9453199B01AC01C701B6010E94A1
:1014200005176B017C0123E333E343E75FE30E948D
:101430007D1787FD91C21D82198600E010E08D8125
:101440009985D801F101868F978FA0A3B1A320E0E1
:101450003AEB4BE55AEC6D857E858F8598890E9425
:1014600053199B01AC0160E070E0CB010E940517AD
:101470000E94BA196B01F82EE92E9B01482F592FB3
:101480006D817985C8010E947D1787FF5EC25D81ED
:101490004985302F212F852F942FA32FB22FF101B3
:1014A000828F938FA48FB58F96014F2D5E2D6DA1E6
:1014B0007EA18FA198A50E947D1718160CF449C231
:1014C00081E0D1019A968C9381E0D10199968C9319
:1014D000E988FA880B891C89E092FF01F0920002EA
:1014E0000093010210930202E9A0FAA00BA11CA133
:1014F000E0920302F09204020093050210930602A8
:1015000040920702509208026092090270920A0209
:101510008DA19EA1AFA1B8A58093FB019093FC0182
:10152000A093FD01B093FE01F980F09288066D88CA
:101530007E888F88988C60920B0270920C02809249
:101540000D0290920E02E98CFA8C0B8D1C8DE092AC
:101550000F02F092100200931102109312026D8C90
:101560007E8C8F8C98A060921302709214028092ED
:10157000150290921602D0908806E0E0F0E000E0BC
:1015800010E065E4862E7724739471C0DA948D2D73
:10159000992787FD9095889E7001899EF00C1124F3
:1015A00097012B523C4F79010115110509F45DC0DB
:1015B000309709F45AC0D8019A968C919A97811164
:1015C00090C05E969C905E975F96AC905F97909669
:1015D000BC9090979196CC90228C338C448C558CF7
:1015E000A2019101692D7A2D8B2D9C2D0E941F192E
:1015F00018160CF082C0A2019101C201B1010E9433
:1016000053191B012C0120E03AEB4BE55AECF80191
:1016100062A173A184A195A10E9453199B01AC0101
:10162000C201B1010E9405170E94BA19362E472E39
:10163000582E692E262F372F482F592F692D7A2D96
:101640008B2D9C2D0E947D1787FF03C0392C25010F
:101650006C2C832D942DA52DB62DF801828F938FA0
:10166000A48FB58FD80199967C92F801870180915B
:10167000870690E02D2D332727FD30952817390751
:1016800009F445C0D11082CF89E090E059E0D52E11
:1016900082CF2D833E834F83588757CD29A33AA30A
:1016A0004BA35CA340CDF101458540624587D8CC72
:1016B000E0960FB6F894DEBF0FBECDBFDF91CF919D
:1016C0001F910F91FF90EF90DF90CF90BF90AF9060
:1016D0009F908F907F906F905F904F903F902F9052
:1016E0000895D8015E969C905E975F96AC905F9748
:1016F0009096BC9090979196CC90492D5A2D6B2D39
:101700007C2DF801428F538F648F758FABCFD090B3
:101710008706E12CF12CE0E0F0E045E4C42E02C0A5
:10172000F70178012D2D332727FD3095809188060C
:1017300090E028173907F9F0C29E8001C39E100D72
:1017400011240B521C4F309731F0E114F10419F0C1
:1017500082A5882331F0D394BAE0DB12E1CFD12CFB
:10176000DFCFA701475D5F4FB701665E7F4FCF01B7
:101770000E94D600F0CF309739F0E114F10421F047
:1017800082A5882309F464C130908706A12CB12C6E
:1017900035E4232E832D992787FD90952091880687
:1017A00030E08217930709F442C0289E4001299E29
:1017B000900C1124F401EB52FC4F4F01A114B10421
:1017C00069F1D50199968C91811103C081A5882377
:1017D00029F1F501C688D788E08CF18CA701960124
:1017E000D4015A966D917D918D919C915D970E9447
:1017F00081172B013C01A7019601F501628D738DC4
:10180000848D958D0E948117AB01BC0193018201EB
:10181000C5010E943F01D50199961C923394BAE00C
:101820003B1611F05401B6CF312C5401B3CFF50162
:10183000C688D788E08CF18CA701960160E070E043
:10184000CB010E9481172B013C01A7019601D50114
:101850005A966D917D918D919C915D970E94811713
:10186000AB01BC0193018201C5010E943F01F5015A
:1018700011A6E0960FB6F894DEBF0FBECDBFDF9184
:10188000CF911F910F91FF90EF90DF90CF90BF907D
:10189000AF909F908F907F906F905F904F903F9010
:1018A0002F900C9482000E9492003101BFE36B0ED6
:1018B000711CF30191838083009749F40E949B047B
:1018C0000E949200D3018D939C930097B9F31D332E
:1018D00008F0C8C0FC011083412E512CD3016D903B
:1018E0007C90BFEF6B1A7B0AE12CF12C0BC0805867
:1018F000F30181933F01FFEFEF1AFF0AE414F504AF
:101900000CF053CB0E94F80687FDF1CF8AE3E096F6
:101910000FB6F894DEBF0FBECDBFDF91CF911F9100
:101920000F91FF90EF90DF90CF90BF90AF909F907E
:101930008F907F906F905F904F903F902F900C947E
:10194000A70380E090E0198210CB5C2D4D2D97010C
:10195000A2CDF10112A6B8CD9401A8016DA17EA17E
:101960008FA198A50E941F19181634F00DA10D83A0
:101970001EA119870FA118A523E333E343E75FEB0B
:10198000C701B6010E941F1918160CF058CDA70107
:10199000960160E070E080E89FE30E94051720E078
:1019A00030E040E05FE30E9453190E94BA196B01D6
:1019B0007C0120E030EC48E256E40E9453194B01D0
:1019C0005C01A701960160E070E080E89FE30E945F
:1019D00005179B01AC01C501B4010E9481170E944B
:1019E000BA196B01F82EE92E9B01482F592F6D81F2
:1019F0007985C8010E947D1787FD21CDCD82D986CA
:101A00000F2D1E2D1CCD662477244301661A770AFC
:101A1000880A990A6D827E828F82988631CBEE2465
:101A2000FF248701E418F50806091709E9A2FAA2BC
:101A30000BA31CA33ECB10950095F094E094E11C01
:101A4000F11C011D111DED86FE860F87188B52CBF0
:101A5000A701475D5F4FB701665E7F4FCF010E94D0
:101A6000D60092CE88E253CF909188068091870667
:101A7000981741F0809187068F5F8A3009F480E0E3
:101A80008093870608950F931F9360914B0270E037
:101A900080E090E06058710981099109660F771F15
:101AA000881F991F660F771F881F991F660F771F62
:101AB000881F991F660F771F881F991F660F771F52
:101AC000881F991F660F771F881F991F660F771F42
:101AD000881F991F00914A0210E020E030E0005872
:101AE000110921093109600F711F821F931F660FB1
:101AF000771F881F991F660F771F881F991F660F12
:101B0000771F881F991F660F771F881F991F660F01
:101B1000771F881F991F660F771F881F991F660FF1
:101B2000771F881F991F0091490210E020E030E0E4
:101B30000058110921093109600F711F821F931F7D
:101B4000660F771F881F991F660F771F881F991FC1
:101B5000660F771F881F991F660F771F881F991FB1
:101B6000660F771F881F991F660F771F881F991FA1
:101B7000660F771F881F991F20914802620F711D01
:101B8000811D911D60587109810998400E941C189F
:101B900020E030E04AE754E40E9481171F910F9142
:101BA00008951F920F920FB60F9211240F931F9357
:101BB0002F933F934F935F936F937F938F939F9355
:101BC000AF93BF93CF93DF93EF93FF938091C206C0
:101BD000811129C081E08093C2069091A2069111E3
:101BE00038C030992AC09091A206911105C094E2A4
:101BF0009093A1068093A2061092C206FF91EF91E6
:101C0000DF91CF91BF91AF919F918F917F916F9114
:101C10005F914F913F912F911F910F910F900FBEA8
:101C20000F901F9018958091A3069091A40601969D
:101C30009093A4068093A306E1CF319913C09091AD
:101C4000A2069111D9CF95E29093A1068093A206A6
:101C5000D3CF0E943B031092880610928706109201
:101C6000C206CCCF32990AC09091A2069111C4CF7E
:101C700096E29093A1068093A206BECF339B0CC040
:101C8000349914C09091A2069111B6CF9BE2909323
:101C9000A1068093A206B0CF9091A2069111ACCF7D
:101CA0009AE29093A1068093A206A6CF35990AC026
:101CB0009091A2069111A0CF9DE29093A1068093EE
:101CC000A2069ACF95B18091A0068873977C892B44
:101CD00085B985B1887F9091A006892B85B98AEF57
:101CE0008093B20082E08093B1007894C0919E0608
:101CF000D0919F06209709F48BC1888190E08730AE
:101D0000910508F079CFFC01EC5CFF4F0C94E516CF
:101D10005D9A10929F0610929E060E94340D6CCF21
:101D20005F9810929F0610929E060E94340D64CF19
:101D30005F9A10929F0610929E060E94340D5CCF0F
:101D40005C9810929F0610929E060E94340D54CF0C
:101D50005C9A10929F0610929E060E94340D4CCF02
:101D60002D852093A0068091B6069091B706A0918C
:101D7000B806B091B90649815A816B817C81840F84
:101D8000951FA61FB71F8093B6069093B706A09322
:101D9000B806B093B906181619061A061B060CF0F9
:101DA00050C221602093A0064E855F85688979899D
:101DB000841B950BA60BB70B8093B6069093B706C2
:101DC000A093B806B093B9068091920690919306BD
:101DD000A0919406B091950623FF1BC20197A1091B
:101DE000B1098093920690939306A0939406B093C2
:101DF00095068091B2069091B306A091B406B09179
:101E0000B5060D811E812F813885800F911FA21F7D
:101E1000B31F8093B2069093B306A093B406B09319
:101E2000B506E091A006181619061A061B0624F539
:101E3000E260E093A006841B950BA60BB70B809382
:101E4000B2069093B306A093B406B093B506809102
:101E5000960690919706A0919806B0919906E4FF96
:101E6000CCC10197A109B10980939606909397067A
:101E7000A0939806B09399068091AE069091AF0614
:101E8000A091B006B091B10609851A852B853C85D5
:101E9000800F911FA21FB31F8093AE069093AF06D1
:101EA000A093B006B093B106181619061A061B06C1
:101EB00014F5E460841B950BA60BB70B8093AE065C
:101EC0009093AF06A093B006B093B10680919A06A6
:101ED00090919B06A0919C06B0919D06E5FFA5C13F
:101EE0000197A109B10980939A0690939B06A0934C
:101EF0009C06B0939D068091AA069091AB06A09196
:101F0000AC06B091AD060196A11DB11D8093AA0645
:101F10009093AB06A093AC06B093AD0620E32E27BA
:101F20002093A00684179507A607B70708F069C095
:101F30004FA958AD69AD7AAD84179507A607B707C5
:101F400008F0EAC080918E0690918F06A0919006CD
:101F5000B09191064091BA065091BB066091BC06C3
:101F60007091BD06840F951FA61FB71F8093BA06F8
:101F70009093BB06A093BC06B093BD06813828E3BE
:101F8000920721E0A207B10508F436CE80589843A5
:101F9000A140B1098093BA069093BB06A093BC06FA
:101FA000B093BD060BA91CA92DA93EA96091BE0640
:101FB0007091BF068091C0069091C106600F711F9D
:101FC000821F931F6093BE067093BF068093C00666
:101FD0009093C1060A891B892C893D89061717072A
:101FE0002807390750F40093BE061093BF062093CC
:101FF000C0063093C106C901B8010E94B103FCCDEF
:102000005D9810929F0610929E060E94340DF4CDAA
:102010009091880680918706981709F45AC1C0915B
:10202000870625E4C29FE0011124CB52DC4FD093F8
:102030009F06C0939E06209709F44BC188818111A9
:102040005CCE6BA57CA58DA59EA56093BE06709306
:10205000BF068093C0069093C10600E41CE920E00F
:1020600030E00093BA061093BB062093BC06309371
:10207000BD060E94B1038E859F85A889B989B59553
:10208000A79597958795B095A095909581959F4F29
:10209000AF4FBF4F8093B6069093B706A093B80694
:1020A000B093B9068093B2069093B306A093B4069A
:1020B000B093B5068093AE069093AF06A093B0069A
:1020C000B093B1061092AA061092AB061092AC061D
:1020D0001092AD06FE01FF960190F081E02D309741
:1020E00009F4E5C08191F894F0938A06E09389069B
:1020F000E80FF11DF0938C06E0938B068FEF9FEFB6
:102100009093A9068093A80610928D067894C091AA
:102110009E06D0919F06F1CD4BAD5CAD6DAD7EAD11
:1021200084179507A607B70709F4ABC0841795076E
:10213000A607B70708F48AC080918E0690918F0693
:10214000A0919006B09191064091BA065091BB06BD
:102150006091BC067091BD06840F951FA61FB71F26
:102160008093BA069093BB06A093BC06B093BD06BD
:10217000813828E3920721E0A207B10508F43CCD9D
:1021800080589843A140B1098093BA069093BB064A
:10219000A093BC06B093BD068BA99CA9ADA9BEA90E
:1021A0004091BE065091BF066091C0067091C10675
:1021B00084179507A607B70708F070C0481B590B8E
:1021C0006A0B7B0B4093BE065093BF066093C0061C
:1021D0007093C1060FA518A929A93AA96091BE0656
:1021E0007091BF068091C0069091C106601771077B
:1021F0008207930708F001CFF6CE0196A11DB11D0D
:102200008093960690939706A0939806B0939906AC
:1022100033CE0196A11DB11D809392069093930633
:10222000A0939406B0939506E4CD0196A11DB11D2F
:1022300080939A0690939B06A0939C06B0939D066C
:102240005ACE4E855F8568897989D3CD6A897B8925
:102250008C899D890091BE061091BF062091C00611
:102260003091C106601771078207930709F4C4CC47
:102270006093BE067093BF068093C0069093C1061C
:10228000BCCE80E49CE9A0E0B0E08093BA069093D5
:10229000BB06A093BC06B093BD06AECC1092BE06A2
:1022A0001092BF061092C0061092C10693CF88A567
:1022B000F89480938D0680918B0690918C06909374
:1022C0008A06809389067894C0919E06D0919F06D5
:1022D00014CD0E943B031092C20690CC1F920F9225
:1022E0000FB60F9211248F9385B1887F85B9109214
:1022F000B1008F910F900FBE0F901F9018951F92F5
:102300000F920FB60F9211242F933F938F939F93A9
:10231000EF93FF932091A8063091A9068091D303F3
:102320009091D403820F931F9093A9068093A806DF
:102330002091A8063091A9068091D3039091D403EF
:102340002817390758F5E0918906F0918A0680919F
:102350008B0690918C06E817F90709F441C0CF016C
:10236000019690938A068093890680818093A706C0
:10237000833040F51092A7069091A60680E099233D
:1023800099F091509093A606882381F08FEF87BD36
:102390008091A70681508093A70609C09091A60658
:1023A0008091A7069111EDCF8111F0CF17BCFF915D
:1023B000EF919F918F913F912F910F900FBE0F90B2
:1023C0001F9018959091A606992341F01092A706A8
:1023D0001092D4031092D30380E0D3CF97E0D2CFF2
:1023E00080918D068093A706C3CF1F920F920FB6E0
:1023F0000F9211242F933F934F935F936F937F938B
:102400008F939F93AF93BF93CF93EF93FF9380915D
:10241000C000C091C60083FD4BC0809101018111B5
:1024200042C081E0809301018091A506C81719F090
:102430008DE30E94A703C03278F4C13009F446C08E
:10244000C23009F447C0C33009F44AC0C430A1F116
:1024500083E20E94A70315C0E091D20381E08E0FB2
:102460008F3F71F19091D103891761F1F0E0EE5245
:10247000FD4FC0838093D2038091000181508093EF
:102480000001FF91EF91CF91BF91AF919F918F91FB
:102490007F916F915F914F913F912F910F900FBE60
:1024A0000F901F90189510920101C093A506E9CFD7
:1024B0008CE20E94A703B1CF81E08093D102E1CFEB
:1024C00080E0D0CF82E20E94A703DBCF81E20E94AE
:1024D000A703D7CF80E28093A1061092A206D1CFA6
:1024E00081E08093D002CDCF1F920F920FB60F9252
:1024F00011248F939F93EF93FF938091CF0290913C
:10250000CE029923B9F095E09093C6001092CE02C6
:1025100090914D02891305C08091C1008F7D8093F9
:10252000C100FF91EF919F918F910F900FBE0F907F
:102530001F901895E82FF0E0E25BFD4F908190939B
:10254000C6008F5F803819F08093CF02E1CF80E022
:102550008093CF02DDCFCF93DF931F92CDB7DEB74D
:1025600078941092C50080E18093C4008091C000EF
:102570008D7F8093C0008091C10080618093C100F5
:102580008091C10088608093C1008091C100806803
:102590008093C10080914D028F5F803809F4E1C3C0
:1025A0009091CF029817E1F3E0914D02F0E0E25BE9
:1025B000FD4F9EE7908380934D028091C100806221
:1025C0008093C100DD24D394D092180280E090E083
:1025D000AAEFB5E48093190290931A02A0931B020C
:1025E000B0931C0243E2642E42E0742E5CE0C52EE0
:1025F000D301EC2D1D92EA95E9F710921D0210927D
:102600001E0210921F0210922002109221021092BC
:1026100047021092220280E090E0A0EAB0E48093AA
:102620002F0290933002A0933102B0933202809334
:10263000330290933402A0933502B0933602109285
:102640003702109238021092390210923A028093A7
:102650003B0290933C02A0933D02B0933E028093D4
:102660003F0290934002A0934102B0934202109225
:102670004302109244021092450210924602D092F8
:10268000D002D092D1021092FA011092F901D092A8
:10269000F8011092880610928706EBE0F2E0DF0165
:1026A0008C2D1D928A95E9F7E12CF12C870120E011
:1026B00030E040EA50E4CA01B9010E943F04EFEF64
:1026C000F1E0DF018C2D1D928A95E9F7E092FB0184
:1026D000F092FC010093FD011093FE0184B18F6321
:1026E00084B985B1807C806385B9809181008F7EBB
:1026F0008093810080918100886080938100809127
:1027000080008D7F80938000809180008E7F8093F9
:102710008000809180008F73809380008091800082
:102720008F7C809380001092B0001092B100809155
:10273000700081608093700060E476E080E090E05B
:102740000E94B103E2E9F6E0DF011D92CA94E9F7C5
:102750008CEB91E0A0E0B0E080939206909393061A
:10276000A0939406B093950687EC91E0A0E0B0E0CA
:102770008093960690939706A0939806B093990637
:102780001092BA061092BB061092BC061092BD06BB
:1027900010929F0610929E061092A20680E28093ED
:1027A000A1061092C2060E943B038AB1837F8AB9B8
:1027B00087B1807C87B9569A17BC81E884BDD5BCA7
:1027C00080916E00816080936E00549A579A5C9855
:1027D0005F98559A5D986CE0962E1BC09FEB980F02
:1027E0009A3188F19FE9980F9A3148F590914C02FF
:1027F0009430A9F590E0FC01E456F109E731F105C8
:1028000008F470C18EE30E94A70310924C020E944C
:102810009B040E94F8069091A2069111F8CF87FFC1
:10282000DDCFE0914C02E43008F058C191E09E0FFA
:1028300090934C02F0E0E85BFD4F8083E8CF83E2A9
:102840000E94A703E2CF482F50E0FA01E154F109BA
:10285000E131F10540F08CE30E94A703D6CF8AE373
:102860000E94A703D2CFE55CFF4F0C94E5160E94AF
:102870009B04809117028111FACF80E00E945903D6
:1028800081E00E945903D301E92D1D92EA95E9F7F1
:10289000E12CF12C8701A8019701C801B7010E9422
:1028A0003F041092220260912F02709130028091B9
:1028B000310290913202609323027093240280933C
:1028C00025029093260220913302309134024091E8
:1028D000350250913602209327023093280240930C
:1028E000290250932A02E0903702F09038020091BA
:1028F000390210913A02E0922B02F0922C020093DE
:102900002D0210932E02A0901902B0901A02C090CE
:102910001B02D0901C021F921F921F921F921F92A7
:102920001F920E944F070F900F900F900F900F90E3
:102930000F906BCF81E08093180267CF109218023E
:1029400064CF86E00E94C30660CFA0901902B090C9
:102950001A02C0901B02D0901C02E0902B02F09053
:102960002C0200912D0210912E022091270230910D
:1029700028024091290250912A026091230270910D
:1029800024028091250290912602E0914702EF9364
:10299000E0912102EF93E0912002EF93E0911F027A
:1029A000EF93E0911E02EF93E0911D02EF930E94DE
:1029B0004F070F900F900F900F900F900F9025CF13
:1029C00085E00E94C30621CF84E00E94C3061DCF8C
:1029D00083E00E94C30619CF82E00E94C30615CF90
:1029E00081E00E94C30611CF81E0809322020DCFC7
:1029F000109222020ACF90911702992341F0898305
:102A00000E949B049091170289819111F8CF21E0D7
:102A100030E0893411F020E030E08901000F111F0F
:102A2000020F131F7801EE0CFF1CEE0CFF1CF701C8
:102A3000E85EFD4F7F016091920670919306809150
:102A40009406909195060E941C182CE137EC41EBFE
:102A500052E40E948117D70157966D937D938D9311
:102A60009C935A977801EE0CFF1CEE0CFF1CF701AB
:102A7000E45EFD4F7F01609196067091970680910C
:102A80009806909199060E941C1824E731ED45EBB9
:102A900052E40E948117D70157966D937D938D93D1
:102AA0009C935A97000F111F000F111F005E1D4FBE
:102AB00060919A0670919B0680919C0690919D066C
:102AC0000E941C1825E535E545E052E40E94811777
:102AD000F801678B708F818F928F97CE8AE30E9467
:102AE000A70395CEE45BFF4F0C94E5168091180286
:102AF000813009F4F8C0C0902B02D0902C02E090F5
:102B00002D02F0902E020E94430D9B01AC01C701E3
:102B1000B6010E94061760932B0270932C028093DB
:102B20002D0290932E0271CE80911802813009F40B
:102B3000F9C0C0902702D0902802E0902902F090BE
:102B40002A020E94430D9B01AC01C701B6010E94FD
:102B500006176093270270932802809329029093AE
:102B60002A0253CE80911802813009F49DC0C09092
:102B70002302D0902402E0902502F09026020E94C9
:102B8000430D9B01AC01C701B6010E94061760937B
:102B9000230270932402809325029093260235CE5F
:102BA0000E94430D60931D0270931E0280931F02CA
:102BB000909320022ACE0E94430D0E94EE1760934C
:102BC000470223CE0E94430D2091370230913802F4
:102BD0004091390250913A020E94061760934302D5
:102BE0007093440280934502909346020ECE0E9459
:102BF000430D2091330230913402409135025091BF
:102C000036020E94061760933F0270934002809341
:102C1000410290934202F9CD0E94430D20912F0270
:102C20003091300240913102509132020E940617D9
:102C300060933B0270933C0280933D0290933E026E
:102C4000E4CD0E94430D6093370270933802809365
:102C5000390290933A02D9CD0E94430D609333021A
:102C6000709334028093350290933602CECD0E9449
:102C7000430D60932F027093300280933102909342
:102C80003202C3CD0E94430D6093190270931A0261
:102C900080931B0290931C02B8CD0E94430D0E94AA
:102CA000EE1760932102B1CD0E94430D20912202C4
:102CB00030E0F901EE0FFF1FE20FF31FEE0FFF1FD1
:102CC000EE0FFF1FE85EFD4F2789308D418D528D3D
:102CD0000E940617609323027093240280932502BA
:102CE0009093260292CD0E94430D2091220230E063
:102CF000F901EE0FFF1FE20FF31FEE0FFF1FEE0FA4
:102D0000FF1FE05EFD4F2789308D418D528D0E945F
:102D1000061760932B0270932C0280932D029093E0
:102D20002E0273CD0E94430D2091220230E0F90162
:102D3000EE0FFF1FE20FF31FEE0FFF1FEE0FFF1F3F
:102D4000E45EFD4F2789308D418D528D0E9406171C
:102D500060932702709328028093290290932A029D
:102D600054CD80E01DCCDB018F939F930E94EB1626
:102D7000BF91AF91A29F800D911DA39F900DB29F17
:102D8000900D11240895A1E21A2EAA1BBB1BFD0170
:102D90000DC0AA1FBB1FEE1FFF1FA217B307E4073A
:102DA000F50720F0A21BB30BE40BF50B661F771F92
:102DB000881F991F1A9469F7609570958095909572
:102DC0009B01AC01BD01CF010895EE0FFF1F0590DF
:102DD000F491E02D09940E94F616A59F900DB49FE2
:102DE000900DA49F800D911D11240895A29FB00104
:102DF000B39FC001A39F700D811D1124911DB29F2F
:102E0000700D811D1124911D08955058BB27AA27CC
:102E10000ED0C4C1B5D130F0BAD120F031F49F3F0B
:102E200011F41EF4AAC10EF4E095E7FB77C1E92F77
:102E3000C6D180F3BA17620773078407950718F0A5
:102E400071F49EF5F5C10EF4E0950B2EBA2FA02D6E
:102E50000B01B90190010C01CA01A0011124FF2747
:102E6000591B99F0593F50F4503E68F11A16F04042
:102E7000A22F232F342F4427585FF3CF4695379541
:102E80002795A795F0405395C9F77EF41F16BA0B06
:102E9000620B730B840BBAF09150A1F0FF0FBB1FB4
:102EA000661F771F881FC2F70EC0BA0F621F731FFD
:102EB000841F48F4879577956795B795F7959E3F5A
:102EC00008F0B3CF9395880F08F09927EE0F9795E8
:102ED0008795089596D180F09F3740F491110EF4B4
:102EE000A8C160E070E080E89FE3089526F01B161B
:102EF000611D711D811D18C132C1ECD008F481E043
:102F000008950CD04BC143D140F03AD130F021F4B8
:102F10005F3F19F003C151118CC12FC150D198F3FB
:102F20009923C9F35523B1F3951B550BBB27AA274A
:102F300062177307840738F09F5F5F4F220F331FBC
:102F4000441FAA1FA9F333D00E2E3AF0E0E830D088
:102F500091505040E695001CCAF729D0FE2F27D08B
:102F6000660F771F881FBB1F261737074807AB0759
:102F7000B0E809F0BB0B802DBF01FF2793585F4FCE
:102F80002AF09E3F510568F0C9C053C15F3FECF382
:102F9000983EDCF3869577956795B795F7959F5F93
:102FA000C9F7880F911D9695879597F90895E1E0E7
:102FB000660F771F881FBB1F621773078407BA0746
:102FC00020F0621B730B840BBA0BEE1F88F7E095A1
:102FD000089504D06894B1112CC10895F8D088F0F8
:102FE0009F5790F0B92F9927B751A0F0D1F0660FF5
:102FF000771F881F991F1AF0BA95C9F712C0B13010
:1030000081F016D1B1E0089513C1672F782F88277A
:10301000B85F39F0B93FCCF3869577956795B3954E
:10302000D9F73EF490958095709561957F4F8F4FBD
:103030009F4F0895E89409C097FB3EF490958095C2
:10304000709561957F4F8F4F9F4F9923A9F0F92F6E
:1030500096E9BB279395F695879577956795B795EC
:10306000F111F8CFFAF4BB0F11F460FF1BC06F5FD2
:103070007F4F8F4F9F4F16C0882311F096E911C0E4
:10308000772321F09EE8872F762F05C0662371F005
:1030900096E8862F70E060E02AF09A95660F771F19
:1030A000881FDAF7880F9695879597F90895A9D024
:1030B00080F09F3740F491110EF0BBC060E070E0EB
:1030C00080E89FEB089526F41B16611D711D811D7C
:1030D0002BC045C0990F0008550FAA0BE0E8FEEF82
:1030E00016161706E807F907C0F012161306E407CC
:1030F000F50798F0621B730B840B950B39F40A26C5
:1031000061F0232B242B252B21F408950A2609F4A2
:10311000A140A6958FEF811D811D089597F99F67A6
:1031200080E870E060E00895882371F4772321F04F
:103130009850872B762F07C0662311F499270DC06E
:103140009051862B70E060E02AF09A95660F771F09
:10315000881FDAF7880F9695879597F908959F3F0E
:1031600031F0915020F4879577956795B795880F42
:10317000911D9695879597F908959FEF80EC089596
:1031800000240A9416161706180609060895002446
:103190000A9412161306140605060895092E0394C0
:1031A000000C11F4882352F0BB0F40F4BF2B11F434
:1031B00060FF04C06F5F7F4F8F4F9F4F089557FD93
:1031C0009058440F551F59F05F3F71F04795880F95
:1031D00097FB991F61F09F3F79F08795089512162C
:1031E00013061406551FF2CF4695F1DF08C01616D8
:1031F00017061806991FF1CF869571056105089489
:103200000895E5DFA0F0BEE7B91788F4BB279F3823
:1032100060F41616B11D672F782F8827985FF7CFB7
:10322000869577956795B11D93959639C8F308955E
:10323000E894BB2766277727CB0197F908954ADFE3
:1032400008F48FEF0895C3DF58F19E5758F1985155
:10325000A0F0E9F0983020F5092E9927660F771F26
:10326000881F991F0A94D1F712C0062E672F782F56
:103270008827985F11F4000C07C0993FB4F3869536
:10328000779567959395D9F7611D711D811D3EF462
:1032900090958095709561957F4F8F4F9F4F0895C2
:1032A0006894C7CFC5CF0BD079CF6ADF28F06FDF26
:1032B00018F0952309F032CF60CF1124BACF7FDF09
:1032C000A0F3959FD1F3950F50E0551F629FF00139
:1032D000729FBB27F00DB11D639FAA27F00DB11D92
:1032E000AA1F649F6627B00DA11D661F829F22271B
:1032F000B00DA11D621F739FB00DA11D621F839FA2
:10330000A00D611D221F749F3327A00D611D231F77
:10331000849F600D211D822F762F6A2F11249F57C5
:1033200050408AF0E1F088234AF0EE0FFF1FBB1FE8
:10333000661F771F881F91505040A9F79E3F510587
:1033400070F0ECCE76CF5F3FECF3983EDCF38695E1
:1033500077956795B795F795E7959F5FC1F7FE2B32
:10336000880F911D9695879597F9089511F40EF49D
:1033700004CFF5CE2CDFD0F39923D9F3CEF39F57AA
:10338000550B87FF35D00024A0E640EA9001805815
:103390005695979528F4805C660F771F881F20F05C
:1033A00026173707480730F4621B730B840B20295C
:1033B00031294A2BA69517940794202531254A27B1
:1033C00058F7660F771F881F20F026173707480722
:1033D00030F4620B730B840B200D311D411DA09541
:1033E00081F7B901842F9158880F96958795089594
:1033F00091505040660F771F881FD2F70895F894B8
:02340000FFCFFC
:02340200FE01C9
:00000001FF
